{
  "address": "0xCf7Ed3AccA5a467e9e704C703E8D87F634fB0Fc9",
  "abi": [
    {
      "inputs": [
        {
          "internalType": "uint64",
          "name": "subscriptionId",
          "type": "uint64"
        },
        {
          "internalType": "address",
          "name": "vrfCoordinator",
          "type": "address"
        },
        {
          "internalType": "bytes32",
          "name": "keyHash",
          "type": "bytes32"
        },
        {
          "internalType": "uint32",
          "name": "gasLimit",
          "type": "uint32"
        },
        {
          "internalType": "uint256",
          "name": "intervalSeconds",
          "type": "uint256"
        },
        {
          "internalType": "uint256",
          "name": "minEntranceFee",
          "type": "uint256"
        }
      ],
      "stateMutability": "nonpayable",
      "type": "constructor"
    },
    {
      "inputs": [],
      "name": "Lottery__LotteryUnplayable",
      "type": "error"
    },
    {
      "inputs": [],
      "name": "Lottery__NotEnoughFundToParticipate",
      "type": "error"
    },
    {
      "inputs": [],
      "name": "Lottery__NotOwner",
      "type": "error"
    },
    {
      "inputs": [],
      "name": "Lottery__NotSentToWinner",
      "type": "error"
    },
    {
      "inputs": [],
      "name": "Lottery__PerformUpkeepNotYetNeeded",
      "type": "error"
    },
    {
      "inputs": [
        {
          "internalType": "address",
          "name": "have",
          "type": "address"
        },
        {
          "internalType": "address",
          "name": "want",
          "type": "address"
        }
      ],
      "name": "OnlyCoordinatorCanFulfill",
      "type": "error"
    },
    {
      "anonymous": false,
      "inputs": [
        {
          "indexed": true,
          "internalType": "address",
          "name": "participant",
          "type": "address"
        }
      ],
      "name": "LotteryEntered",
      "type": "event"
    },
    {
      "anonymous": false,
      "inputs": [
        {
          "indexed": true,
          "internalType": "address",
          "name": "winner",
          "type": "address"
        }
      ],
      "name": "PickedWinner",
      "type": "event"
    },
    {
      "anonymous": false,
      "inputs": [
        {
          "indexed": true,
          "internalType": "uint256",
          "name": "requestId",
          "type": "uint256"
        }
      ],
      "name": "RequestedLotteryWinner",
      "type": "event"
    },
    {
      "inputs": [
        {
          "internalType": "bytes",
          "name": "",
          "type": "bytes"
        }
      ],
      "name": "checkUpkeep",
      "outputs": [
        {
          "internalType": "bool",
          "name": "upkeepNeeded",
          "type": "bool"
        },
        {
          "internalType": "bytes",
          "name": "",
          "type": "bytes"
        }
      ],
      "stateMutability": "view",
      "type": "function"
    },
    {
      "inputs": [],
      "name": "enterLottery",
      "outputs": [],
      "stateMutability": "payable",
      "type": "function"
    },
    {
      "inputs": [],
      "name": "getInterval",
      "outputs": [
        {
          "internalType": "uint256",
          "name": "",
          "type": "uint256"
        }
      ],
      "stateMutability": "view",
      "type": "function"
    },
    {
      "inputs": [],
      "name": "getLastTimeStamp",
      "outputs": [
        {
          "internalType": "uint256",
          "name": "",
          "type": "uint256"
        }
      ],
      "stateMutability": "view",
      "type": "function"
    },
    {
      "inputs": [],
      "name": "getLotteryAmount",
      "outputs": [
        {
          "internalType": "uint256",
          "name": "",
          "type": "uint256"
        }
      ],
      "stateMutability": "view",
      "type": "function"
    },
    {
      "inputs": [],
      "name": "getLotteryPlayable",
      "outputs": [
        {
          "internalType": "bool",
          "name": "",
          "type": "bool"
        }
      ],
      "stateMutability": "view",
      "type": "function"
    },
    {
      "inputs": [],
      "name": "getMinEntranceFee",
      "outputs": [
        {
          "internalType": "uint256",
          "name": "",
          "type": "uint256"
        }
      ],
      "stateMutability": "view",
      "type": "function"
    },
    {
      "inputs": [],
      "name": "getNumberOfParticipants",
      "outputs": [
        {
          "internalType": "uint256",
          "name": "",
          "type": "uint256"
        }
      ],
      "stateMutability": "view",
      "type": "function"
    },
    {
      "inputs": [],
      "name": "getParticipants",
      "outputs": [
        {
          "internalType": "address[]",
          "name": "",
          "type": "address[]"
        }
      ],
      "stateMutability": "view",
      "type": "function"
    },
    {
      "inputs": [],
      "name": "getSubscriptionId",
      "outputs": [
        {
          "internalType": "uint64",
          "name": "",
          "type": "uint64"
        }
      ],
      "stateMutability": "view",
      "type": "function"
    },
    {
      "inputs": [],
      "name": "getWinner",
      "outputs": [
        {
          "internalType": "address",
          "name": "",
          "type": "address"
        }
      ],
      "stateMutability": "view",
      "type": "function"
    },
    {
      "inputs": [
        {
          "internalType": "bytes",
          "name": "",
          "type": "bytes"
        }
      ],
      "name": "performUpkeep",
      "outputs": [],
      "stateMutability": "nonpayable",
      "type": "function"
    },
    {
      "inputs": [
        {
          "internalType": "uint256",
          "name": "requestId",
          "type": "uint256"
        },
        {
          "internalType": "uint256[]",
          "name": "randomWords",
          "type": "uint256[]"
        }
      ],
      "name": "rawFulfillRandomWords",
      "outputs": [],
      "stateMutability": "nonpayable",
      "type": "function"
    },
    {
      "inputs": [
        {
          "internalType": "address",
          "name": "",
          "type": "address"
        }
      ],
      "name": "s_participantToAmount",
      "outputs": [
        {
          "internalType": "uint256",
          "name": "",
          "type": "uint256"
        }
      ],
      "stateMutability": "view",
      "type": "function"
    }
  ],
  "transactionHash": "0x461fe130f0bf163da4debba1af95464fbe8e4fa3c4bdbe4fc23ab0e70b12a652",
  "args": [
    "1",
    "0x5FbDB2315678afecb367f032d93F642f64180aa3",
    "0xd89b2bf150e3b9e13446986e571fb9cab24b13cea0a43ea20a6049a85cc807cc",
    50000,
    60,
    "10000000000000000"
  ],
  "numDeployments": 1,
  "solcInputHash": "2020af112e3f7f6735c51cc13c18a1c0",
  "bytecode": "0x6101206040523480156200001257600080fd5b5060405162001ace38038062001ace8339818101604052810190620000389190620002cc565b848073ffffffffffffffffffffffffffffffffffffffff1660808173ffffffffffffffffffffffffffffffffffffffff16815250505084600560006101000a81548173ffffffffffffffffffffffffffffffffffffffff021916908373ffffffffffffffffffffffffffffffffffffffff1602179055503373ffffffffffffffffffffffffffffffffffffffff1660a08173ffffffffffffffffffffffffffffffffffffffff16815250508161010081815250506001600460146101000a81548160ff02191690831515021790555042600881905550836006819055508060c081815250508567ffffffffffffffff1660e08167ffffffffffffffff168152505082600760006101000a81548163ffffffff021916908363ffffffff16021790555050505050505062000368565b600080fd5b600067ffffffffffffffff82169050919050565b6200018a816200016b565b81146200019657600080fd5b50565b600081519050620001aa816200017f565b92915050565b600073ffffffffffffffffffffffffffffffffffffffff82169050919050565b6000620001dd82620001b0565b9050919050565b620001ef81620001d0565b8114620001fb57600080fd5b50565b6000815190506200020f81620001e4565b92915050565b6000819050919050565b6200022a8162000215565b81146200023657600080fd5b50565b6000815190506200024a816200021f565b92915050565b600063ffffffff82169050919050565b6200026b8162000250565b81146200027757600080fd5b50565b6000815190506200028b8162000260565b92915050565b6000819050919050565b620002a68162000291565b8114620002b257600080fd5b50565b600081519050620002c6816200029b565b92915050565b60008060008060008060c08789031215620002ec57620002eb62000166565b5b6000620002fc89828a0162000199565b96505060206200030f89828a01620001fe565b95505060406200032289828a0162000239565b94505060606200033589828a016200027a565b93505060806200034889828a01620002b5565b92505060a06200035b89828a01620002b5565b9150509295509295509295565b60805160a05160c05160e05161010051611705620003c9600039600081816106d7015261078501526000818161055d0152610a2e01526000818161040001526107fb0152600061043d01526000818161033e015261039201526117056000f3fe6080604052600436106100dd5760003560e01c80638e7ea5b21161007f578063c1af578511610059578063c1af5785146102b1578063c1c244e8146102bb578063c80c28a2146102e6578063de3d9fb714610311576100dd565b80638e7ea5b21461023057806391ad27b41461025b578063a537e19d14610286576100dd565b80635aa68ac0116100bb5780635aa68ac01461015f578063625cfb9e1461018a5780636e04ff0d146101c75780638172135e14610205576100dd565b80631fe543e3146100e25780633b35c5171461010b5780634585e33b14610136575b600080fd5b3480156100ee57600080fd5b5061010960048036038101906101049190610efc565b61033c565b005b34801561011757600080fd5b506101206103fc565b60405161012d9190610f67565b60405180910390f35b34801561014257600080fd5b5061015d60048036038101906101589190610fdd565b610424565b005b34801561016b57600080fd5b5061017461062b565b604051610181919061111a565b60405180910390f35b34801561019657600080fd5b506101b160048036038101906101ac9190611168565b6106b9565b6040516101be9190610f67565b60405180910390f35b3480156101d357600080fd5b506101ee60048036038101906101e9919061124a565b6106d1565b6040516101fc929190611336565b60405180910390f35b34801561021157600080fd5b5061021a610740565b6040516102279190611366565b60405180910390f35b34801561023c57600080fd5b50610245610757565b6040516102529190611390565b60405180910390f35b34801561026757600080fd5b50610270610781565b60405161027d9190610f67565b60405180910390f35b34801561029257600080fd5b5061029b6107a9565b6040516102a89190610f67565b60405180910390f35b6102b96107b3565b005b3480156102c757600080fd5b506102d0610a14565b6040516102dd9190610f67565b60405180910390f35b3480156102f257600080fd5b506102fb610a1e565b6040516103089190610f67565b60405180910390f35b34801561031d57600080fd5b50610326610a2a565b60405161033391906113ce565b60405180910390f35b7f000000000000000000000000000000000000000000000000000000000000000073ffffffffffffffffffffffffffffffffffffffff163373ffffffffffffffffffffffffffffffffffffffff16146103ee57337f00000000000000000000000000000000000000000000000000000000000000006040517f1cf993f40000000000000000000000000000000000000000000000000000000081526004016103e59291906113e9565b60405180910390fd5b6103f88282610a52565b5050565b60007f0000000000000000000000000000000000000000000000000000000000000000905090565b3373ffffffffffffffffffffffffffffffffffffffff167f000000000000000000000000000000000000000000000000000000000000000073ffffffffffffffffffffffffffffffffffffffff16146104a9576040517fac588c4600000000000000000000000000000000000000000000000000000000815260040160405180910390fd5b60006104c3604051806020016040528060008152506106d1565b509050806104fd576040517f621418c600000000000000000000000000000000000000000000000000000000815260040160405180910390fd5b6000600460146101000a81548160ff0219169083151502179055506000600560009054906101000a900473ffffffffffffffffffffffffffffffffffffffff1673ffffffffffffffffffffffffffffffffffffffff16635d3b1d306006547f00000000000000000000000000000000000000000000000000000000000000006003600760009054906101000a900463ffffffff1660016040518663ffffffff1660e01b81526004016105b39594939291906114ac565b6020604051808303816000875af11580156105d2573d6000803e3d6000fd5b505050506040513d601f19601f820116820180604052508101906105f69190611514565b9050807febf56642252004c18a776f30d528e7a0ce8c5db14b6596fb6550f630c8a24c6c60405160405180910390a250505050565b606060008054806020026020016040519081016040528092919081815260200182805480156106af57602002820191906000526020600020905b8160009054906101000a900473ffffffffffffffffffffffffffffffffffffffff1673ffffffffffffffffffffffffffffffffffffffff1681526020019060010190808311610665575b5050505050905090565b60016020528060005260406000206000915090505481565b600060607f0000000000000000000000000000000000000000000000000000000000000000600854426107049190611570565b118015610715575060008080549050115b80156107215750600047115b80156107395750600460149054906101000a900460ff165b9150915091565b6000600460149054906101000a900460ff16905090565b6000600460009054906101000a900473ffffffffffffffffffffffffffffffffffffffff16905090565b60007f0000000000000000000000000000000000000000000000000000000000000000905090565b6000600354905090565b600460149054906101000a900460ff166107f9576040517f708c8a7800000000000000000000000000000000000000000000000000000000815260040160405180910390fd5b7f0000000000000000000000000000000000000000000000000000000000000000341015610853576040517f12afd2a900000000000000000000000000000000000000000000000000000000815260040160405180910390fd5b346003600082825461086591906115a4565b9250508190555034600160003373ffffffffffffffffffffffffffffffffffffffff1673ffffffffffffffffffffffffffffffffffffffff16815260200190815260200160002060008282546108bb91906115a4565b92505081905550600260003373ffffffffffffffffffffffffffffffffffffffff1673ffffffffffffffffffffffffffffffffffffffff16815260200190815260200160002060009054906101000a900460ff166109cf576000339080600181540180825580915050600190039060005260206000200160009091909190916101000a81548173ffffffffffffffffffffffffffffffffffffffff021916908373ffffffffffffffffffffffffffffffffffffffff1602179055506001600260003373ffffffffffffffffffffffffffffffffffffffff1673ffffffffffffffffffffffffffffffffffffffff16815260200190815260200160002060006101000a81548160ff0219169083151502179055505b3373ffffffffffffffffffffffffffffffffffffffff167f4c72b57c1ca715219cf2c7be9edc8a3ea19dfb9a76fb7a05e2a8062a027ee97060405160405180910390a2565b6000600854905090565b60008080549050905090565b60007f0000000000000000000000000000000000000000000000000000000000000000905090565b6000808054905082600081518110610a6d57610a6c6115fa565b5b6020026020010151610a7f9190611658565b905060008181548110610a9557610a946115fa565b5b9060005260206000200160009054906101000a900473ffffffffffffffffffffffffffffffffffffffff16600460006101000a81548173ffffffffffffffffffffffffffffffffffffffff021916908373ffffffffffffffffffffffffffffffffffffffff160217905550600067ffffffffffffffff811115610b1b57610b1a610db9565b5b604051908082528060200260200182016040528015610b495781602001602082028036833780820191505090505b5060009080519060200190610b5f929190610cb2565b50426008819055506000600460009054906101000a900473ffffffffffffffffffffffffffffffffffffffff1673ffffffffffffffffffffffffffffffffffffffff1647604051610baf906116ba565b60006040518083038185875af1925050503d8060008114610bec576040519150601f19603f3d011682016040523d82523d6000602084013e610bf1565b606091505b5050905080610c2c576040517fcd1b9c7100000000000000000000000000000000000000000000000000000000815260040160405180910390fd5b6001600460146101000a81548160ff021916908315150217905550600460009054906101000a900473ffffffffffffffffffffffffffffffffffffffff1673ffffffffffffffffffffffffffffffffffffffff167fb112587e57bfa970257f3d54fc52859c6300f6bd7a982462c320fed45c2530ed60405160405180910390a250505050565b828054828255906000526020600020908101928215610d2b579160200282015b82811115610d2a5782518260006101000a81548173ffffffffffffffffffffffffffffffffffffffff021916908373ffffffffffffffffffffffffffffffffffffffff16021790555091602001919060010190610cd2565b5b509050610d389190610d3c565b5090565b5b80821115610d55576000816000905550600101610d3d565b5090565b6000604051905090565b600080fd5b600080fd5b6000819050919050565b610d8081610d6d565b8114610d8b57600080fd5b50565b600081359050610d9d81610d77565b92915050565b600080fd5b6000601f19601f8301169050919050565b7f4e487b7100000000000000000000000000000000000000000000000000000000600052604160045260246000fd5b610df182610da8565b810181811067ffffffffffffffff82111715610e1057610e0f610db9565b5b80604052505050565b6000610e23610d59565b9050610e2f8282610de8565b919050565b600067ffffffffffffffff821115610e4f57610e4e610db9565b5b602082029050602081019050919050565b600080fd5b6000610e78610e7384610e34565b610e19565b90508083825260208201905060208402830185811115610e9b57610e9a610e60565b5b835b81811015610ec45780610eb08882610d8e565b845260208401935050602081019050610e9d565b5050509392505050565b600082601f830112610ee357610ee2610da3565b5b8135610ef3848260208601610e65565b91505092915050565b60008060408385031215610f1357610f12610d63565b5b6000610f2185828601610d8e565b925050602083013567ffffffffffffffff811115610f4257610f41610d68565b5b610f4e85828601610ece565b9150509250929050565b610f6181610d6d565b82525050565b6000602082019050610f7c6000830184610f58565b92915050565b600080fd5b60008083601f840112610f9d57610f9c610da3565b5b8235905067ffffffffffffffff811115610fba57610fb9610f82565b5b602083019150836001820283011115610fd657610fd5610e60565b5b9250929050565b60008060208385031215610ff457610ff3610d63565b5b600083013567ffffffffffffffff81111561101257611011610d68565b5b61101e85828601610f87565b92509250509250929050565b600081519050919050565b600082825260208201905092915050565b6000819050602082019050919050565b600073ffffffffffffffffffffffffffffffffffffffff82169050919050565b600061108182611056565b9050919050565b61109181611076565b82525050565b60006110a38383611088565b60208301905092915050565b6000602082019050919050565b60006110c78261102a565b6110d18185611035565b93506110dc83611046565b8060005b8381101561110d5781516110f48882611097565b97506110ff836110af565b9250506001810190506110e0565b5085935050505092915050565b6000602082019050818103600083015261113481846110bc565b905092915050565b61114581611076565b811461115057600080fd5b50565b6000813590506111628161113c565b92915050565b60006020828403121561117e5761117d610d63565b5b600061118c84828501611153565b91505092915050565b600080fd5b600067ffffffffffffffff8211156111b5576111b4610db9565b5b6111be82610da8565b9050602081019050919050565b82818337600083830152505050565b60006111ed6111e88461119a565b610e19565b90508281526020810184848401111561120957611208611195565b5b6112148482856111cb565b509392505050565b600082601f83011261123157611230610da3565b5b81356112418482602086016111da565b91505092915050565b6000602082840312156112605761125f610d63565b5b600082013567ffffffffffffffff81111561127e5761127d610d68565b5b61128a8482850161121c565b91505092915050565b60008115159050919050565b6112a881611293565b82525050565b600081519050919050565b600082825260208201905092915050565b60005b838110156112e85780820151818401526020810190506112cd565b838111156112f7576000848401525b50505050565b6000611308826112ae565b61131281856112b9565b93506113228185602086016112ca565b61132b81610da8565b840191505092915050565b600060408201905061134b600083018561129f565b818103602083015261135d81846112fd565b90509392505050565b600060208201905061137b600083018461129f565b92915050565b61138a81611076565b82525050565b60006020820190506113a56000830184611381565b92915050565b600067ffffffffffffffff82169050919050565b6113c8816113ab565b82525050565b60006020820190506113e360008301846113bf565b92915050565b60006040820190506113fe6000830185611381565b61140b6020830184611381565b9392505050565b6000819050919050565b61142581611412565b82525050565b600061ffff82169050919050565b6114428161142b565b82525050565b600063ffffffff82169050919050565b61146181611448565b82525050565b6000819050919050565b6000819050919050565b600061149661149161148c84611467565b611471565b611448565b9050919050565b6114a68161147b565b82525050565b600060a0820190506114c1600083018861141c565b6114ce60208301876113bf565b6114db6040830186611439565b6114e86060830185611458565b6114f5608083018461149d565b9695505050505050565b60008151905061150e81610d77565b92915050565b60006020828403121561152a57611529610d63565b5b6000611538848285016114ff565b91505092915050565b7f4e487b7100000000000000000000000000000000000000000000000000000000600052601160045260246000fd5b600061157b82610d6d565b915061158683610d6d565b92508282101561159957611598611541565b5b828203905092915050565b60006115af82610d6d565b91506115ba83610d6d565b9250827fffffffffffffffffffffffffffffffffffffffffffffffffffffffffffffffff038211156115ef576115ee611541565b5b828201905092915050565b7f4e487b7100000000000000000000000000000000000000000000000000000000600052603260045260246000fd5b7f4e487b7100000000000000000000000000000000000000000000000000000000600052601260045260246000fd5b600061166382610d6d565b915061166e83610d6d565b92508261167e5761167d611629565b5b828206905092915050565b600081905092915050565b50565b60006116a4600083611689565b91506116af82611694565b600082019050919050565b60006116c582611697565b915081905091905056fea26469706673582212207b23939550c843e559c4dfa547664cc960e42fcdd574b100014f0934b522493164736f6c634300080f0033",
  "devdoc": {
    "author": "chain xvi",
    "details": "This contract uses chainlink oracles for Keepers to automate the execution and for VRF to get random number to pick winner",
    "kind": "dev",
    "methods": {
      "enterLottery()": {
        "details": "This function checks if the lottery is playable to make sure the player enters where no previous winner is being picked by the VRF. It also checks if the minimum amount is equal or above the minimum."
      },
      "getInterval()": {
        "returns": {
          "_0": "i_interval as uint256"
        }
      },
      "getLastTimeStamp()": {
        "returns": {
          "_0": "s_lastTimeStamp as uint256"
        }
      },
      "getLotteryAmount()": {
        "returns": {
          "_0": "s_lotteryAmount as uint256"
        }
      },
      "getLotteryPlayable()": {
        "returns": {
          "_0": "s_lotteryPlayable as bool"
        }
      },
      "getMinEntranceFee()": {
        "returns": {
          "_0": "i_minEntranceFee as uint256"
        }
      },
      "getNumberOfParticipants()": {
        "returns": {
          "_0": "s_participants.length as uint256"
        }
      },
      "getParticipants()": {
        "returns": {
          "_0": "s_participants as address[]"
        }
      },
      "getSubscriptionId()": {
        "returns": {
          "_0": "i_subscriptionId as uint256"
        }
      },
      "getWinner()": {
        "returns": {
          "_0": "s_winner as address"
        }
      }
    },
    "title": "A lottery contract",
    "version": 1
  },
  "userdoc": {
    "kind": "user",
    "methods": {
      "enterLottery()": {
        "notice": "Allows non duplicate participants to enter the lottery"
      },
      "getInterval()": {
        "notice": "Returns the interval"
      },
      "getLastTimeStamp()": {
        "notice": "Returns the last time stamp"
      },
      "getLotteryAmount()": {
        "notice": "Returns the lottery amount"
      },
      "getLotteryPlayable()": {
        "notice": "Returns the lottery playable state"
      },
      "getMinEntranceFee()": {
        "notice": "Returns the min entrance fee"
      },
      "getNumberOfParticipants()": {
        "notice": "Returns the number of participants"
      },
      "getParticipants()": {
        "notice": "Returns the participants"
      },
      "getSubscriptionId()": {
        "notice": "Returns the subscriptionId"
      },
      "getWinner()": {
        "notice": "Returns the winner"
      }
    },
    "notice": "A lottery where participants enter and after an interval a winner is picked",
    "version": 1
  },
  "storageLayout": {
    "storage": [
      {
        "astId": 903,
        "contract": "contracts/Lottery.sol:Lottery",
        "label": "s_participants",
        "offset": 0,
        "slot": "0",
        "type": "t_array(t_address)dyn_storage"
      },
      {
        "astId": 907,
        "contract": "contracts/Lottery.sol:Lottery",
        "label": "s_participantToAmount",
        "offset": 0,
        "slot": "1",
        "type": "t_mapping(t_address,t_uint256)"
      },
      {
        "astId": 911,
        "contract": "contracts/Lottery.sol:Lottery",
        "label": "s_participantToExists",
        "offset": 0,
        "slot": "2",
        "type": "t_mapping(t_address,t_bool)"
      },
      {
        "astId": 913,
        "contract": "contracts/Lottery.sol:Lottery",
        "label": "s_lotteryAmount",
        "offset": 0,
        "slot": "3",
        "type": "t_uint256"
      },
      {
        "astId": 915,
        "contract": "contracts/Lottery.sol:Lottery",
        "label": "s_winner",
        "offset": 0,
        "slot": "4",
        "type": "t_address_payable"
      },
      {
        "astId": 917,
        "contract": "contracts/Lottery.sol:Lottery",
        "label": "s_lotteryPlayable",
        "offset": 20,
        "slot": "4",
        "type": "t_bool"
      },
      {
        "astId": 922,
        "contract": "contracts/Lottery.sol:Lottery",
        "label": "COORDINATOR",
        "offset": 0,
        "slot": "5",
        "type": "t_contract(VRFCoordinatorV2Interface)299"
      },
      {
        "astId": 926,
        "contract": "contracts/Lottery.sol:Lottery",
        "label": "i_keyHash",
        "offset": 0,
        "slot": "6",
        "type": "t_bytes32"
      },
      {
        "astId": 931,
        "contract": "contracts/Lottery.sol:Lottery",
        "label": "i_gasLimit",
        "offset": 0,
        "slot": "7",
        "type": "t_uint32"
      },
      {
        "astId": 933,
        "contract": "contracts/Lottery.sol:Lottery",
        "label": "s_lastTimeStamp",
        "offset": 0,
        "slot": "8",
        "type": "t_uint256"
      }
    ],
    "types": {
      "t_address": {
        "encoding": "inplace",
        "label": "address",
        "numberOfBytes": "20"
      },
      "t_address_payable": {
        "encoding": "inplace",
        "label": "address payable",
        "numberOfBytes": "20"
      },
      "t_array(t_address)dyn_storage": {
        "base": "t_address",
        "encoding": "dynamic_array",
        "label": "address[]",
        "numberOfBytes": "32"
      },
      "t_bool": {
        "encoding": "inplace",
        "label": "bool",
        "numberOfBytes": "1"
      },
      "t_bytes32": {
        "encoding": "inplace",
        "label": "bytes32",
        "numberOfBytes": "32"
      },
      "t_contract(VRFCoordinatorV2Interface)299": {
        "encoding": "inplace",
        "label": "contract VRFCoordinatorV2Interface",
        "numberOfBytes": "20"
      },
      "t_mapping(t_address,t_bool)": {
        "encoding": "mapping",
        "key": "t_address",
        "label": "mapping(address => bool)",
        "numberOfBytes": "32",
        "value": "t_bool"
      },
      "t_mapping(t_address,t_uint256)": {
        "encoding": "mapping",
        "key": "t_address",
        "label": "mapping(address => uint256)",
        "numberOfBytes": "32",
        "value": "t_uint256"
      },
      "t_uint256": {
        "encoding": "inplace",
        "label": "uint256",
        "numberOfBytes": "32"
      },
      "t_uint32": {
        "encoding": "inplace",
        "label": "uint32",
        "numberOfBytes": "4"
      }
    }
  }
}