{
  "address": "0xA020686424aa87C022Ca4ffFd970A983a1b81215",
  "abi": [
    {
      "inputs": [
        {
          "internalType": "uint64",
          "name": "subscriptionId",
          "type": "uint64"
        },
        {
          "internalType": "address",
          "name": "vrfCoordinator",
          "type": "address"
        },
        {
          "internalType": "bytes32",
          "name": "keyHash",
          "type": "bytes32"
        },
        {
          "internalType": "uint32",
          "name": "gasLimit",
          "type": "uint32"
        },
        {
          "internalType": "uint256",
          "name": "intervalSeconds",
          "type": "uint256"
        },
        {
          "internalType": "uint256",
          "name": "minEntranceFee",
          "type": "uint256"
        }
      ],
      "stateMutability": "nonpayable",
      "type": "constructor"
    },
    {
      "inputs": [],
      "name": "Lottery__LotteryUnplayable",
      "type": "error"
    },
    {
      "inputs": [],
      "name": "Lottery__NotEnoughFundToParticipate",
      "type": "error"
    },
    {
      "inputs": [],
      "name": "Lottery__NotSentToWinner",
      "type": "error"
    },
    {
      "inputs": [],
      "name": "Lottery__PerformUpkeepNotYetNeeded",
      "type": "error"
    },
    {
      "inputs": [
        {
          "internalType": "address",
          "name": "have",
          "type": "address"
        },
        {
          "internalType": "address",
          "name": "want",
          "type": "address"
        }
      ],
      "name": "OnlyCoordinatorCanFulfill",
      "type": "error"
    },
    {
      "anonymous": false,
      "inputs": [
        {
          "indexed": true,
          "internalType": "address",
          "name": "participant",
          "type": "address"
        }
      ],
      "name": "LotteryEntered",
      "type": "event"
    },
    {
      "anonymous": false,
      "inputs": [
        {
          "indexed": true,
          "internalType": "address",
          "name": "winner",
          "type": "address"
        }
      ],
      "name": "PickedWinner",
      "type": "event"
    },
    {
      "anonymous": false,
      "inputs": [
        {
          "indexed": true,
          "internalType": "uint256",
          "name": "requestId",
          "type": "uint256"
        }
      ],
      "name": "RequestedLotteryWinner",
      "type": "event"
    },
    {
      "anonymous": false,
      "inputs": [
        {
          "indexed": true,
          "internalType": "uint256",
          "name": "randomNumber",
          "type": "uint256"
        }
      ],
      "name": "fulfillRandomWordsCalled",
      "type": "event"
    },
    {
      "inputs": [
        {
          "internalType": "bytes",
          "name": "",
          "type": "bytes"
        }
      ],
      "name": "checkUpkeep",
      "outputs": [
        {
          "internalType": "bool",
          "name": "upkeepNeeded",
          "type": "bool"
        },
        {
          "internalType": "bytes",
          "name": "",
          "type": "bytes"
        }
      ],
      "stateMutability": "view",
      "type": "function"
    },
    {
      "inputs": [],
      "name": "enterLottery",
      "outputs": [],
      "stateMutability": "payable",
      "type": "function"
    },
    {
      "inputs": [],
      "name": "getInterval",
      "outputs": [
        {
          "internalType": "uint256",
          "name": "",
          "type": "uint256"
        }
      ],
      "stateMutability": "view",
      "type": "function"
    },
    {
      "inputs": [],
      "name": "getLastTimeStamp",
      "outputs": [
        {
          "internalType": "uint256",
          "name": "",
          "type": "uint256"
        }
      ],
      "stateMutability": "view",
      "type": "function"
    },
    {
      "inputs": [],
      "name": "getLotteryAmount",
      "outputs": [
        {
          "internalType": "uint256",
          "name": "",
          "type": "uint256"
        }
      ],
      "stateMutability": "view",
      "type": "function"
    },
    {
      "inputs": [],
      "name": "getLotteryPlayable",
      "outputs": [
        {
          "internalType": "bool",
          "name": "",
          "type": "bool"
        }
      ],
      "stateMutability": "view",
      "type": "function"
    },
    {
      "inputs": [],
      "name": "getMinEntranceFee",
      "outputs": [
        {
          "internalType": "uint256",
          "name": "",
          "type": "uint256"
        }
      ],
      "stateMutability": "view",
      "type": "function"
    },
    {
      "inputs": [],
      "name": "getNumberOfParticipants",
      "outputs": [
        {
          "internalType": "uint256",
          "name": "",
          "type": "uint256"
        }
      ],
      "stateMutability": "view",
      "type": "function"
    },
    {
      "inputs": [],
      "name": "getParticipants",
      "outputs": [
        {
          "internalType": "address payable[]",
          "name": "",
          "type": "address[]"
        }
      ],
      "stateMutability": "view",
      "type": "function"
    },
    {
      "inputs": [],
      "name": "getSubscriptionId",
      "outputs": [
        {
          "internalType": "uint64",
          "name": "",
          "type": "uint64"
        }
      ],
      "stateMutability": "view",
      "type": "function"
    },
    {
      "inputs": [],
      "name": "getWinner",
      "outputs": [
        {
          "internalType": "address",
          "name": "",
          "type": "address"
        }
      ],
      "stateMutability": "view",
      "type": "function"
    },
    {
      "inputs": [
        {
          "internalType": "bytes",
          "name": "",
          "type": "bytes"
        }
      ],
      "name": "performUpkeep",
      "outputs": [],
      "stateMutability": "nonpayable",
      "type": "function"
    },
    {
      "inputs": [
        {
          "internalType": "uint256",
          "name": "requestId",
          "type": "uint256"
        },
        {
          "internalType": "uint256[]",
          "name": "randomWords",
          "type": "uint256[]"
        }
      ],
      "name": "rawFulfillRandomWords",
      "outputs": [],
      "stateMutability": "nonpayable",
      "type": "function"
    }
  ],
  "transactionHash": "0x5eb87108b602072ccbd72a275ac6d6bb40eda68c08ecddaea2b0f255b76fc327",
  "args": [
    7761,
    "0x6168499c0cFfCaCD319c818142124B7A15E857ab",
    "0xd89b2bf150e3b9e13446986e571fb9cab24b13cea0a43ea20a6049a85cc807cc",
    500000,
    60,
    "10000000000000000"
  ],
  "numDeployments": 2,
  "solcInputHash": "c468aa09738bde868efe5cfad36d5367",
  "bytecode": "0x6101206040523480156200001257600080fd5b50604051620018c1380380620018c18339818101604052810190620000389190620002cc565b848073ffffffffffffffffffffffffffffffffffffffff1660808173ffffffffffffffffffffffffffffffffffffffff16815250505084600360006101000a81548173ffffffffffffffffffffffffffffffffffffffff021916908373ffffffffffffffffffffffffffffffffffffffff1602179055503373ffffffffffffffffffffffffffffffffffffffff1660a08173ffffffffffffffffffffffffffffffffffffffff16815250508161010081815250506001600260146101000a81548160ff02191690831515021790555042600681905550836004819055508060c081815250508567ffffffffffffffff1660e08167ffffffffffffffff168152505082600560006101000a81548163ffffffff021916908363ffffffff16021790555050505050505062000368565b600080fd5b600067ffffffffffffffff82169050919050565b6200018a816200016b565b81146200019657600080fd5b50565b600081519050620001aa816200017f565b92915050565b600073ffffffffffffffffffffffffffffffffffffffff82169050919050565b6000620001dd82620001b0565b9050919050565b620001ef81620001d0565b8114620001fb57600080fd5b50565b6000815190506200020f81620001e4565b92915050565b6000819050919050565b6200022a8162000215565b81146200023657600080fd5b50565b6000815190506200024a816200021f565b92915050565b600063ffffffff82169050919050565b6200026b8162000250565b81146200027757600080fd5b50565b6000815190506200028b8162000260565b92915050565b6000819050919050565b620002a68162000291565b8114620002b257600080fd5b50565b600081519050620002c6816200029b565b92915050565b60008060008060008060c08789031215620002ec57620002eb62000166565b5b6000620002fc89828a0162000199565b96505060206200030f89828a01620001fe565b95505060406200032289828a0162000239565b94505060606200033589828a016200027a565b93505060806200034889828a01620002b5565b92505060a06200035b89828a01620002b5565b9150509295509295509295565b60805160a05160c05160e051610100516114fb620003c6600039600081816105e2015261069001526000818161048001526108390152600081816103a80152610706015260005050600081816102e6015261033a01526114fb6000f3fe6080604052600436106100c25760003560e01c80638e7ea5b21161007f578063c1af578511610059578063c1af578514610259578063c1c244e814610263578063c80c28a21461028e578063de3d9fb7146102b9576100c2565b80638e7ea5b2146101d857806391ad27b414610203578063a537e19d1461022e576100c2565b80631fe543e3146100c75780633b35c517146100f05780634585e33b1461011b5780635aa68ac0146101445780636e04ff0d1461016f5780638172135e146101ad575b600080fd5b3480156100d357600080fd5b506100ee60048036038101906100e99190610d39565b6102e4565b005b3480156100fc57600080fd5b506101056103a4565b6040516101129190610da4565b60405180910390f35b34801561012757600080fd5b50610142600480360381019061013d9190610e1a565b6103cc565b005b34801561015057600080fd5b5061015961054e565b6040516101669190610f57565b60405180910390f35b34801561017b57600080fd5b506101966004803603810190610191919061102e565b6105dc565b6040516101a492919061111a565b60405180910390f35b3480156101b957600080fd5b506101c261064b565b6040516101cf919061114a565b60405180910390f35b3480156101e457600080fd5b506101ed610662565b6040516101fa9190611186565b60405180910390f35b34801561020f57600080fd5b5061021861068c565b6040516102259190610da4565b60405180910390f35b34801561023a57600080fd5b506102436106b4565b6040516102509190610da4565b60405180910390f35b6102616106be565b005b34801561026f57600080fd5b5061027861081f565b6040516102859190610da4565b60405180910390f35b34801561029a57600080fd5b506102a3610829565b6040516102b09190610da4565b60405180910390f35b3480156102c557600080fd5b506102ce610835565b6040516102db91906111c4565b60405180910390f35b7f000000000000000000000000000000000000000000000000000000000000000073ffffffffffffffffffffffffffffffffffffffff163373ffffffffffffffffffffffffffffffffffffffff161461039657337f00000000000000000000000000000000000000000000000000000000000000006040517f1cf993f400000000000000000000000000000000000000000000000000000000815260040161038d9291906111df565b60405180910390fd5b6103a0828261085d565b5050565b60007f0000000000000000000000000000000000000000000000000000000000000000905090565b60006103e6604051806020016040528060008152506105dc565b50905080610420576040517f621418c600000000000000000000000000000000000000000000000000000000815260040160405180910390fd5b6000600260146101000a81548160ff0219169083151502179055506000600360009054906101000a900473ffffffffffffffffffffffffffffffffffffffff1673ffffffffffffffffffffffffffffffffffffffff16635d3b1d306004547f00000000000000000000000000000000000000000000000000000000000000006003600560009054906101000a900463ffffffff1660016040518663ffffffff1660e01b81526004016104d69594939291906112a2565b6020604051808303816000875af11580156104f5573d6000803e3d6000fd5b505050506040513d601f19601f82011682018060405250810190610519919061130a565b9050807febf56642252004c18a776f30d528e7a0ce8c5db14b6596fb6550f630c8a24c6c60405160405180910390a250505050565b606060008054806020026020016040519081016040528092919081815260200182805480156105d257602002820191906000526020600020905b8160009054906101000a900473ffffffffffffffffffffffffffffffffffffffff1673ffffffffffffffffffffffffffffffffffffffff1681526020019060010190808311610588575b5050505050905090565b600060607f00000000000000000000000000000000000000000000000000000000000000006006544261060f9190611366565b118015610620575060008080549050115b801561062c5750600047115b80156106445750600260149054906101000a900460ff165b9150915091565b6000600260149054906101000a900460ff16905090565b6000600260009054906101000a900473ffffffffffffffffffffffffffffffffffffffff16905090565b60007f0000000000000000000000000000000000000000000000000000000000000000905090565b6000600154905090565b600260149054906101000a900460ff16610704576040517f708c8a7800000000000000000000000000000000000000000000000000000000815260040160405180910390fd5b7f000000000000000000000000000000000000000000000000000000000000000034101561075e576040517f12afd2a900000000000000000000000000000000000000000000000000000000815260040160405180910390fd5b3460016000828254610770919061139a565b925050819055506000339080600181540180825580915050600190039060005260206000200160009091909190916101000a81548173ffffffffffffffffffffffffffffffffffffffff021916908373ffffffffffffffffffffffffffffffffffffffff1602179055503373ffffffffffffffffffffffffffffffffffffffff167f4c72b57c1ca715219cf2c7be9edc8a3ea19dfb9a76fb7a05e2a8062a027ee97060405160405180910390a2565b6000600654905090565b60008080549050905090565b60007f0000000000000000000000000000000000000000000000000000000000000000905090565b6001600260146101000a81548160ff0219169083151502179055506000808054905082600081518110610893576108926113f0565b5b60200260200101516108a5919061144e565b905060008082815481106108bc576108bb6113f0565b5b9060005260206000200160009054906101000a900473ffffffffffffffffffffffffffffffffffffffff16905080600260006101000a81548173ffffffffffffffffffffffffffffffffffffffff021916908373ffffffffffffffffffffffffffffffffffffffff160217905550600067ffffffffffffffff81111561094557610944610bf6565b5b6040519080825280602002602001820160405280156109735781602001602082028036833780820191505090505b5060009080519060200190610989929190610aef565b5042600681905550817f09e294e58e780fbc63e7c6bb5f6b934526ad1230a88283cd5e20542cde01cef060405160405180910390a26000600260009054906101000a900473ffffffffffffffffffffffffffffffffffffffff1673ffffffffffffffffffffffffffffffffffffffff1647604051610a06906114b0565b60006040518083038185875af1925050503d8060008114610a43576040519150601f19603f3d011682016040523d82523d6000602084013e610a48565b606091505b5050905080610a83576040517fcd1b9c7100000000000000000000000000000000000000000000000000000000815260040160405180910390fd5b600260009054906101000a900473ffffffffffffffffffffffffffffffffffffffff1673ffffffffffffffffffffffffffffffffffffffff167fb112587e57bfa970257f3d54fc52859c6300f6bd7a982462c320fed45c2530ed60405160405180910390a25050505050565b828054828255906000526020600020908101928215610b68579160200282015b82811115610b675782518260006101000a81548173ffffffffffffffffffffffffffffffffffffffff021916908373ffffffffffffffffffffffffffffffffffffffff16021790555091602001919060010190610b0f565b5b509050610b759190610b79565b5090565b5b80821115610b92576000816000905550600101610b7a565b5090565b6000604051905090565b600080fd5b600080fd5b6000819050919050565b610bbd81610baa565b8114610bc857600080fd5b50565b600081359050610bda81610bb4565b92915050565b600080fd5b6000601f19601f8301169050919050565b7f4e487b7100000000000000000000000000000000000000000000000000000000600052604160045260246000fd5b610c2e82610be5565b810181811067ffffffffffffffff82111715610c4d57610c4c610bf6565b5b80604052505050565b6000610c60610b96565b9050610c6c8282610c25565b919050565b600067ffffffffffffffff821115610c8c57610c8b610bf6565b5b602082029050602081019050919050565b600080fd5b6000610cb5610cb084610c71565b610c56565b90508083825260208201905060208402830185811115610cd857610cd7610c9d565b5b835b81811015610d015780610ced8882610bcb565b845260208401935050602081019050610cda565b5050509392505050565b600082601f830112610d2057610d1f610be0565b5b8135610d30848260208601610ca2565b91505092915050565b60008060408385031215610d5057610d4f610ba0565b5b6000610d5e85828601610bcb565b925050602083013567ffffffffffffffff811115610d7f57610d7e610ba5565b5b610d8b85828601610d0b565b9150509250929050565b610d9e81610baa565b82525050565b6000602082019050610db96000830184610d95565b92915050565b600080fd5b60008083601f840112610dda57610dd9610be0565b5b8235905067ffffffffffffffff811115610df757610df6610dbf565b5b602083019150836001820283011115610e1357610e12610c9d565b5b9250929050565b60008060208385031215610e3157610e30610ba0565b5b600083013567ffffffffffffffff811115610e4f57610e4e610ba5565b5b610e5b85828601610dc4565b92509250509250929050565b600081519050919050565b600082825260208201905092915050565b6000819050602082019050919050565b600073ffffffffffffffffffffffffffffffffffffffff82169050919050565b6000610ebe82610e93565b9050919050565b610ece81610eb3565b82525050565b6000610ee08383610ec5565b60208301905092915050565b6000602082019050919050565b6000610f0482610e67565b610f0e8185610e72565b9350610f1983610e83565b8060005b83811015610f4a578151610f318882610ed4565b9750610f3c83610eec565b925050600181019050610f1d565b5085935050505092915050565b60006020820190508181036000830152610f718184610ef9565b905092915050565b600080fd5b600067ffffffffffffffff821115610f9957610f98610bf6565b5b610fa282610be5565b9050602081019050919050565b82818337600083830152505050565b6000610fd1610fcc84610f7e565b610c56565b905082815260208101848484011115610fed57610fec610f79565b5b610ff8848285610faf565b509392505050565b600082601f83011261101557611014610be0565b5b8135611025848260208601610fbe565b91505092915050565b60006020828403121561104457611043610ba0565b5b600082013567ffffffffffffffff81111561106257611061610ba5565b5b61106e84828501611000565b91505092915050565b60008115159050919050565b61108c81611077565b82525050565b600081519050919050565b600082825260208201905092915050565b60005b838110156110cc5780820151818401526020810190506110b1565b838111156110db576000848401525b50505050565b60006110ec82611092565b6110f6818561109d565b93506111068185602086016110ae565b61110f81610be5565b840191505092915050565b600060408201905061112f6000830185611083565b818103602083015261114181846110e1565b90509392505050565b600060208201905061115f6000830184611083565b92915050565b600061117082610e93565b9050919050565b61118081611165565b82525050565b600060208201905061119b6000830184611177565b92915050565b600067ffffffffffffffff82169050919050565b6111be816111a1565b82525050565b60006020820190506111d960008301846111b5565b92915050565b60006040820190506111f46000830185611177565b6112016020830184611177565b9392505050565b6000819050919050565b61121b81611208565b82525050565b600061ffff82169050919050565b61123881611221565b82525050565b600063ffffffff82169050919050565b6112578161123e565b82525050565b6000819050919050565b6000819050919050565b600061128c6112876112828461125d565b611267565b61123e565b9050919050565b61129c81611271565b82525050565b600060a0820190506112b76000830188611212565b6112c460208301876111b5565b6112d1604083018661122f565b6112de606083018561124e565b6112eb6080830184611293565b9695505050505050565b60008151905061130481610bb4565b92915050565b6000602082840312156113205761131f610ba0565b5b600061132e848285016112f5565b91505092915050565b7f4e487b7100000000000000000000000000000000000000000000000000000000600052601160045260246000fd5b600061137182610baa565b915061137c83610baa565b92508282101561138f5761138e611337565b5b828203905092915050565b60006113a582610baa565b91506113b083610baa565b9250827fffffffffffffffffffffffffffffffffffffffffffffffffffffffffffffffff038211156113e5576113e4611337565b5b828201905092915050565b7f4e487b7100000000000000000000000000000000000000000000000000000000600052603260045260246000fd5b7f4e487b7100000000000000000000000000000000000000000000000000000000600052601260045260246000fd5b600061145982610baa565b915061146483610baa565b9250826114745761147361141f565b5b828206905092915050565b600081905092915050565b50565b600061149a60008361147f565b91506114a58261148a565b600082019050919050565b60006114bb8261148d565b915081905091905056fea2646970667358221220099cd9a25deecaa97094b9ccf0071853d1bb3e6971378e119a2b09d08cd7b02764736f6c634300080f0033",
  "devdoc": {
    "author": "chain xvi",
    "details": "This contract uses chainlink oracles for Keepers to automate the execution and for VRF to get random number to pick winner",
    "kind": "dev",
    "methods": {
      "enterLottery()": {
        "details": "This function checks if the lottery is playable to make sure the player enters where no previous winner is being picked by the VRF. It also checks if the minimum amount is equal or above the minimum."
      },
      "getInterval()": {
        "returns": {
          "_0": "i_interval as uint256"
        }
      },
      "getLastTimeStamp()": {
        "returns": {
          "_0": "s_lastTimeStamp as uint256"
        }
      },
      "getLotteryAmount()": {
        "returns": {
          "_0": "s_lotteryAmount as uint256"
        }
      },
      "getLotteryPlayable()": {
        "returns": {
          "_0": "s_lotteryPlayable as bool"
        }
      },
      "getMinEntranceFee()": {
        "returns": {
          "_0": "i_minEntranceFee as uint256"
        }
      },
      "getNumberOfParticipants()": {
        "returns": {
          "_0": "s_participants.length as uint256"
        }
      },
      "getParticipants()": {
        "returns": {
          "_0": "s_participants as address[]"
        }
      },
      "getSubscriptionId()": {
        "returns": {
          "_0": "i_subscriptionId as uint256"
        }
      },
      "getWinner()": {
        "returns": {
          "_0": "s_winner as address"
        }
      }
    },
    "title": "A lottery contract",
    "version": 1
  },
  "userdoc": {
    "kind": "user",
    "methods": {
      "enterLottery()": {
        "notice": "Allows non duplicate participants to enter the lottery"
      },
      "getInterval()": {
        "notice": "Returns the interval"
      },
      "getLastTimeStamp()": {
        "notice": "Returns the last time stamp"
      },
      "getLotteryAmount()": {
        "notice": "Returns the lottery amount"
      },
      "getLotteryPlayable()": {
        "notice": "Returns the lottery playable state"
      },
      "getMinEntranceFee()": {
        "notice": "Returns the min entrance fee"
      },
      "getNumberOfParticipants()": {
        "notice": "Returns the number of participants"
      },
      "getParticipants()": {
        "notice": "Returns the participants"
      },
      "getSubscriptionId()": {
        "notice": "Returns the subscriptionId"
      },
      "getWinner()": {
        "notice": "Returns the winner"
      }
    },
    "notice": "A lottery where participants enter and after an interval a winner is picked",
    "version": 1
  },
  "storageLayout": {
    "storage": [
      {
        "astId": 229,
        "contract": "contracts/Lottery.sol:Lottery",
        "label": "s_participants",
        "offset": 0,
        "slot": "0",
        "type": "t_array(t_address_payable)dyn_storage"
      },
      {
        "astId": 231,
        "contract": "contracts/Lottery.sol:Lottery",
        "label": "s_lotteryAmount",
        "offset": 0,
        "slot": "1",
        "type": "t_uint256"
      },
      {
        "astId": 233,
        "contract": "contracts/Lottery.sol:Lottery",
        "label": "s_winner",
        "offset": 0,
        "slot": "2",
        "type": "t_address"
      },
      {
        "astId": 235,
        "contract": "contracts/Lottery.sol:Lottery",
        "label": "s_lotteryPlayable",
        "offset": 20,
        "slot": "2",
        "type": "t_bool"
      },
      {
        "astId": 240,
        "contract": "contracts/Lottery.sol:Lottery",
        "label": "COORDINATOR",
        "offset": 0,
        "slot": "3",
        "type": "t_contract(VRFCoordinatorV2Interface)204"
      },
      {
        "astId": 244,
        "contract": "contracts/Lottery.sol:Lottery",
        "label": "i_keyHash",
        "offset": 0,
        "slot": "4",
        "type": "t_bytes32"
      },
      {
        "astId": 249,
        "contract": "contracts/Lottery.sol:Lottery",
        "label": "i_gasLimit",
        "offset": 0,
        "slot": "5",
        "type": "t_uint32"
      },
      {
        "astId": 251,
        "contract": "contracts/Lottery.sol:Lottery",
        "label": "s_lastTimeStamp",
        "offset": 0,
        "slot": "6",
        "type": "t_uint256"
      }
    ],
    "types": {
      "t_address": {
        "encoding": "inplace",
        "label": "address",
        "numberOfBytes": "20"
      },
      "t_address_payable": {
        "encoding": "inplace",
        "label": "address payable",
        "numberOfBytes": "20"
      },
      "t_array(t_address_payable)dyn_storage": {
        "base": "t_address_payable",
        "encoding": "dynamic_array",
        "label": "address payable[]",
        "numberOfBytes": "32"
      },
      "t_bool": {
        "encoding": "inplace",
        "label": "bool",
        "numberOfBytes": "1"
      },
      "t_bytes32": {
        "encoding": "inplace",
        "label": "bytes32",
        "numberOfBytes": "32"
      },
      "t_contract(VRFCoordinatorV2Interface)204": {
        "encoding": "inplace",
        "label": "contract VRFCoordinatorV2Interface",
        "numberOfBytes": "20"
      },
      "t_uint256": {
        "encoding": "inplace",
        "label": "uint256",
        "numberOfBytes": "32"
      },
      "t_uint32": {
        "encoding": "inplace",
        "label": "uint32",
        "numberOfBytes": "4"
      }
    }
  }
}