{
  "address": "0x38670006e13301d59Da9B1098887313011318935",
  "abi": [
    {
      "inputs": [
        {
          "internalType": "uint64",
          "name": "subscriptionId",
          "type": "uint64"
        },
        {
          "internalType": "address",
          "name": "vrfCoordinator",
          "type": "address"
        },
        {
          "internalType": "bytes32",
          "name": "keyHash",
          "type": "bytes32"
        },
        {
          "internalType": "uint32",
          "name": "gasLimit",
          "type": "uint32"
        },
        {
          "internalType": "uint256",
          "name": "intervalSeconds",
          "type": "uint256"
        },
        {
          "internalType": "uint256",
          "name": "minEntranceFee",
          "type": "uint256"
        }
      ],
      "stateMutability": "nonpayable",
      "type": "constructor"
    },
    {
      "inputs": [],
      "name": "Lottery__CannotPlayTwice",
      "type": "error"
    },
    {
      "inputs": [],
      "name": "Lottery__LotteryUnplayable",
      "type": "error"
    },
    {
      "inputs": [],
      "name": "Lottery__NotEnoughFundToParticipate",
      "type": "error"
    },
    {
      "inputs": [],
      "name": "Lottery__NotSentToWinner",
      "type": "error"
    },
    {
      "inputs": [],
      "name": "Lottery__PerformUpkeepNotYetNeeded",
      "type": "error"
    },
    {
      "inputs": [
        {
          "internalType": "address",
          "name": "have",
          "type": "address"
        },
        {
          "internalType": "address",
          "name": "want",
          "type": "address"
        }
      ],
      "name": "OnlyCoordinatorCanFulfill",
      "type": "error"
    },
    {
      "anonymous": false,
      "inputs": [
        {
          "indexed": true,
          "internalType": "address",
          "name": "participant",
          "type": "address"
        }
      ],
      "name": "LotteryEntered",
      "type": "event"
    },
    {
      "anonymous": false,
      "inputs": [
        {
          "indexed": true,
          "internalType": "address",
          "name": "winner",
          "type": "address"
        }
      ],
      "name": "PickedWinner",
      "type": "event"
    },
    {
      "anonymous": false,
      "inputs": [
        {
          "indexed": true,
          "internalType": "uint256",
          "name": "requestId",
          "type": "uint256"
        }
      ],
      "name": "RequestedLotteryWinner",
      "type": "event"
    },
    {
      "anonymous": false,
      "inputs": [
        {
          "indexed": true,
          "internalType": "uint256",
          "name": "randomNumber",
          "type": "uint256"
        }
      ],
      "name": "fulfillRandomWordsCalled",
      "type": "event"
    },
    {
      "inputs": [
        {
          "internalType": "bytes",
          "name": "",
          "type": "bytes"
        }
      ],
      "name": "checkUpkeep",
      "outputs": [
        {
          "internalType": "bool",
          "name": "upkeepNeeded",
          "type": "bool"
        },
        {
          "internalType": "bytes",
          "name": "",
          "type": "bytes"
        }
      ],
      "stateMutability": "view",
      "type": "function"
    },
    {
      "inputs": [],
      "name": "enterLottery",
      "outputs": [],
      "stateMutability": "payable",
      "type": "function"
    },
    {
      "inputs": [],
      "name": "getInterval",
      "outputs": [
        {
          "internalType": "uint256",
          "name": "",
          "type": "uint256"
        }
      ],
      "stateMutability": "view",
      "type": "function"
    },
    {
      "inputs": [],
      "name": "getLastTimeStamp",
      "outputs": [
        {
          "internalType": "uint256",
          "name": "",
          "type": "uint256"
        }
      ],
      "stateMutability": "view",
      "type": "function"
    },
    {
      "inputs": [],
      "name": "getLotteryAmount",
      "outputs": [
        {
          "internalType": "uint256",
          "name": "",
          "type": "uint256"
        }
      ],
      "stateMutability": "view",
      "type": "function"
    },
    {
      "inputs": [],
      "name": "getLotteryPlayable",
      "outputs": [
        {
          "internalType": "bool",
          "name": "",
          "type": "bool"
        }
      ],
      "stateMutability": "view",
      "type": "function"
    },
    {
      "inputs": [],
      "name": "getMinEntranceFee",
      "outputs": [
        {
          "internalType": "uint256",
          "name": "",
          "type": "uint256"
        }
      ],
      "stateMutability": "view",
      "type": "function"
    },
    {
      "inputs": [],
      "name": "getNumberOfParticipants",
      "outputs": [
        {
          "internalType": "uint256",
          "name": "",
          "type": "uint256"
        }
      ],
      "stateMutability": "view",
      "type": "function"
    },
    {
      "inputs": [],
      "name": "getParticipants",
      "outputs": [
        {
          "internalType": "address payable[]",
          "name": "",
          "type": "address[]"
        }
      ],
      "stateMutability": "view",
      "type": "function"
    },
    {
      "inputs": [],
      "name": "getSubscriptionId",
      "outputs": [
        {
          "internalType": "uint64",
          "name": "",
          "type": "uint64"
        }
      ],
      "stateMutability": "view",
      "type": "function"
    },
    {
      "inputs": [],
      "name": "getTotalPlayedAmount",
      "outputs": [
        {
          "internalType": "uint256",
          "name": "",
          "type": "uint256"
        }
      ],
      "stateMutability": "view",
      "type": "function"
    },
    {
      "inputs": [],
      "name": "getWinner",
      "outputs": [
        {
          "internalType": "address",
          "name": "",
          "type": "address"
        }
      ],
      "stateMutability": "view",
      "type": "function"
    },
    {
      "inputs": [
        {
          "internalType": "bytes",
          "name": "",
          "type": "bytes"
        }
      ],
      "name": "performUpkeep",
      "outputs": [],
      "stateMutability": "nonpayable",
      "type": "function"
    },
    {
      "inputs": [
        {
          "internalType": "uint256",
          "name": "requestId",
          "type": "uint256"
        },
        {
          "internalType": "uint256[]",
          "name": "randomWords",
          "type": "uint256[]"
        }
      ],
      "name": "rawFulfillRandomWords",
      "outputs": [],
      "stateMutability": "nonpayable",
      "type": "function"
    },
    {
      "inputs": [
        {
          "internalType": "address",
          "name": "",
          "type": "address"
        }
      ],
      "name": "s_participantToAmount",
      "outputs": [
        {
          "internalType": "uint256",
          "name": "",
          "type": "uint256"
        }
      ],
      "stateMutability": "view",
      "type": "function"
    },
    {
      "inputs": [
        {
          "internalType": "address",
          "name": "",
          "type": "address"
        }
      ],
      "name": "s_participantToDateEntered",
      "outputs": [
        {
          "internalType": "uint256",
          "name": "",
          "type": "uint256"
        }
      ],
      "stateMutability": "view",
      "type": "function"
    },
    {
      "inputs": [
        {
          "internalType": "address",
          "name": "",
          "type": "address"
        }
      ],
      "name": "s_participantToExists",
      "outputs": [
        {
          "internalType": "bool",
          "name": "",
          "type": "bool"
        }
      ],
      "stateMutability": "view",
      "type": "function"
    }
  ],
  "transactionHash": "0x22ffd691ebe5e43720cdb8b9c51c39b050f1aa2ba59aff870427a2e91d0a5887",
  "args": [
    7761,
    "0x6168499c0cFfCaCD319c818142124B7A15E857ab",
    "0xd89b2bf150e3b9e13446986e571fb9cab24b13cea0a43ea20a6049a85cc807cc",
    1000000,
    300,
    "10000000000000000"
  ],
  "numDeployments": 12,
  "solcInputHash": "d877b65026b3032794fa61036dc07732",
  "bytecode": "0x6101206040523480156200001257600080fd5b5060405162001e4638038062001e468339818101604052810190620000389190620002c5565b848073ffffffffffffffffffffffffffffffffffffffff1660808173ffffffffffffffffffffffffffffffffffffffff16815250505084600760006101000a81548173ffffffffffffffffffffffffffffffffffffffff021916908373ffffffffffffffffffffffffffffffffffffffff1602179055503373ffffffffffffffffffffffffffffffffffffffff1660a08173ffffffffffffffffffffffffffffffffffffffff16815250508161010081815250506001600460146101000a81548160ff021916908315150217905550836008819055508060c081815250508567ffffffffffffffff1660e08167ffffffffffffffff168152505082600960006101000a81548163ffffffff021916908363ffffffff16021790555050505050505062000361565b600080fd5b600067ffffffffffffffff82169050919050565b620001838162000164565b81146200018f57600080fd5b50565b600081519050620001a38162000178565b92915050565b600073ffffffffffffffffffffffffffffffffffffffff82169050919050565b6000620001d682620001a9565b9050919050565b620001e881620001c9565b8114620001f457600080fd5b50565b6000815190506200020881620001dd565b92915050565b6000819050919050565b62000223816200020e565b81146200022f57600080fd5b50565b600081519050620002438162000218565b92915050565b600063ffffffff82169050919050565b620002648162000249565b81146200027057600080fd5b50565b600081519050620002848162000259565b92915050565b6000819050919050565b6200029f816200028a565b8114620002ab57600080fd5b50565b600081519050620002bf8162000294565b92915050565b60008060008060008060c08789031215620002e557620002e46200015f565b5b6000620002f589828a0162000192565b96505060206200030889828a01620001f7565b95505060406200031b89828a0162000232565b94505060606200032e89828a0162000273565b93505060806200034189828a01620002ae565b92505060a06200035489828a01620002ae565b9150509295509295509295565b60805160a05160c05160e05161010051611a87620003bf6000396000818161075001526107fe01526000818161059e0152610b5c0152600081816104c601526108740152600050506000818161040401526104580152611a876000f3fe6080604052600436106100fe5760003560e01c80638172135e11610095578063c1af578511610064578063c1af57851461034c578063c1c244e814610356578063c80c28a214610381578063de3d9fb7146103ac578063ec2c499b146103d7576100fe565b80638172135e146102a05780638e7ea5b2146102cb57806391ad27b4146102f6578063a537e19d14610321576100fe565b8063625cfb9e116100d1578063625cfb9e146101ab5780636741636a146101e85780636bffd220146102255780636e04ff0d14610262576100fe565b80631fe543e3146101035780633b35c5171461012c5780634585e33b146101575780635aa68ac014610180575b600080fd5b34801561010f57600080fd5b5061012a60048036038101906101259190611224565b610402565b005b34801561013857600080fd5b506101416104c2565b60405161014e919061128f565b60405180910390f35b34801561016357600080fd5b5061017e60048036038101906101799190611305565b6104ea565b005b34801561018c57600080fd5b5061019561066c565b6040516101a29190611442565b60405180910390f35b3480156101b757600080fd5b506101d260048036038101906101cd91906114a2565b6106fa565b6040516101df919061128f565b60405180910390f35b3480156101f457600080fd5b5061020f600480360381019061020a91906114a2565b610712565b60405161021c91906114ea565b60405180910390f35b34801561023157600080fd5b5061024c600480360381019061024791906114a2565b610732565b604051610259919061128f565b60405180910390f35b34801561026e57600080fd5b50610289600480360381019061028491906115ba565b61074a565b60405161029792919061168b565b60405180910390f35b3480156102ac57600080fd5b506102b56107b9565b6040516102c291906114ea565b60405180910390f35b3480156102d757600080fd5b506102e06107d0565b6040516102ed91906116ca565b60405180910390f35b34801561030257600080fd5b5061030b6107fa565b604051610318919061128f565b60405180910390f35b34801561032d57600080fd5b50610336610822565b604051610343919061128f565b60405180910390f35b61035461082c565b005b34801561036257600080fd5b5061036b610b42565b604051610378919061128f565b60405180910390f35b34801561038d57600080fd5b50610396610b4c565b6040516103a3919061128f565b60405180910390f35b3480156103b857600080fd5b506103c1610b58565b6040516103ce9190611708565b60405180910390f35b3480156103e357600080fd5b506103ec610b80565b6040516103f9919061128f565b60405180910390f35b7f000000000000000000000000000000000000000000000000000000000000000073ffffffffffffffffffffffffffffffffffffffff163373ffffffffffffffffffffffffffffffffffffffff16146104b457337f00000000000000000000000000000000000000000000000000000000000000006040517f1cf993f40000000000000000000000000000000000000000000000000000000081526004016104ab929190611723565b60405180910390fd5b6104be8282610b8a565b5050565b60007f0000000000000000000000000000000000000000000000000000000000000000905090565b60006105046040518060200160405280600081525061074a565b5090508061053e576040517f621418c600000000000000000000000000000000000000000000000000000000815260040160405180910390fd5b6000600460146101000a81548160ff0219169083151502179055506000600760009054906101000a900473ffffffffffffffffffffffffffffffffffffffff1673ffffffffffffffffffffffffffffffffffffffff16635d3b1d306008547f00000000000000000000000000000000000000000000000000000000000000006003600960009054906101000a900463ffffffff1660016040518663ffffffff1660e01b81526004016105f49594939291906117e6565b6020604051808303816000875af1158015610613573d6000803e3d6000fd5b505050506040513d601f19601f82011682018060405250810190610637919061184e565b9050807febf56642252004c18a776f30d528e7a0ce8c5db14b6596fb6550f630c8a24c6c60405160405180910390a250505050565b606060008054806020026020016040519081016040528092919081815260200182805480156106f057602002820191906000526020600020905b8160009054906101000a900473ffffffffffffffffffffffffffffffffffffffff1673ffffffffffffffffffffffffffffffffffffffff16815260200190600101908083116106a6575b5050505050905090565b60016020528060005260406000206000915090505481565b60026020528060005260406000206000915054906101000a900460ff1681565b60036020528060005260406000206000915090505481565b600060607f0000000000000000000000000000000000000000000000000000000000000000600a544261077d91906118aa565b11801561078e575060008080549050115b801561079a5750600047115b80156107b25750600460149054906101000a900460ff165b9150915091565b6000600460149054906101000a900460ff16905090565b6000600460009054906101000a900473ffffffffffffffffffffffffffffffffffffffff16905090565b60007f0000000000000000000000000000000000000000000000000000000000000000905090565b6000600554905090565b600460149054906101000a900460ff16610872576040517f708c8a7800000000000000000000000000000000000000000000000000000000815260040160405180910390fd5b7f00000000000000000000000000000000000000000000000000000000000000003410156108cc576040517f12afd2a900000000000000000000000000000000000000000000000000000000815260040160405180910390fd5b600260003373ffffffffffffffffffffffffffffffffffffffff1673ffffffffffffffffffffffffffffffffffffffff16815260200190815260200160002060009054906101000a900460ff1615610950576040517f30337efc00000000000000000000000000000000000000000000000000000000815260040160405180910390fd5b60008080549050036109645742600a819055505b6001600260003373ffffffffffffffffffffffffffffffffffffffff1673ffffffffffffffffffffffffffffffffffffffff16815260200190815260200160002060006101000a81548160ff02191690831515021790555034600160003373ffffffffffffffffffffffffffffffffffffffff1673ffffffffffffffffffffffffffffffffffffffff1681526020019081526020016000206000828254610a0b91906118de565b9250508190555042600360003373ffffffffffffffffffffffffffffffffffffffff1673ffffffffffffffffffffffffffffffffffffffff1681526020019081526020016000206000828254610a6191906118de565b925050819055503460056000828254610a7a91906118de565b925050819055503460066000828254610a9391906118de565b925050819055506000339080600181540180825580915050600190039060005260206000200160009091909190916101000a81548173ffffffffffffffffffffffffffffffffffffffff021916908373ffffffffffffffffffffffffffffffffffffffff1602179055503373ffffffffffffffffffffffffffffffffffffffff167f4c72b57c1ca715219cf2c7be9edc8a3ea19dfb9a76fb7a05e2a8062a027ee97060405160405180910390a2565b6000600a54905090565b60008080549050905090565b60007f0000000000000000000000000000000000000000000000000000000000000000905090565b6000600654905090565b6001600460146101000a81548160ff0219169083151502179055506000808054905082600081518110610bc057610bbf611934565b5b6020026020010151610bd29190611992565b90506000808281548110610be957610be8611934565b5b9060005260206000200160009054906101000a900473ffffffffffffffffffffffffffffffffffffffff16905080600460006101000a81548173ffffffffffffffffffffffffffffffffffffffff021916908373ffffffffffffffffffffffffffffffffffffffff16021790555060005b600080549050811015610e1357600060016000808481548110610c8057610c7f611934565b5b9060005260206000200160009054906101000a900473ffffffffffffffffffffffffffffffffffffffff1673ffffffffffffffffffffffffffffffffffffffff1673ffffffffffffffffffffffffffffffffffffffff16815260200190815260200160002081905550600060036000808481548110610d0257610d01611934565b5b9060005260206000200160009054906101000a900473ffffffffffffffffffffffffffffffffffffffff1673ffffffffffffffffffffffffffffffffffffffff1673ffffffffffffffffffffffffffffffffffffffff16815260200190815260200160002081905550600060026000808481548110610d8457610d83611934565b5b9060005260206000200160009054906101000a900473ffffffffffffffffffffffffffffffffffffffff1673ffffffffffffffffffffffffffffffffffffffff1673ffffffffffffffffffffffffffffffffffffffff16815260200190815260200160002060006101000a81548160ff0219169083151502179055508080610e0b906119c3565b915050610c5a565b506000600581905550600067ffffffffffffffff811115610e3757610e366110e1565b5b604051908082528060200260200182016040528015610e655781602001602082028036833780820191505090505b5060009080519060200190610e7b929190610fda565b50817f09e294e58e780fbc63e7c6bb5f6b934526ad1230a88283cd5e20542cde01cef060405160405180910390a26000600460009054906101000a900473ffffffffffffffffffffffffffffffffffffffff1673ffffffffffffffffffffffffffffffffffffffff1647604051610ef190611a3c565b60006040518083038185875af1925050503d8060008114610f2e576040519150601f19603f3d011682016040523d82523d6000602084013e610f33565b606091505b5050905080610f6e576040517fcd1b9c7100000000000000000000000000000000000000000000000000000000815260040160405180910390fd5b600460009054906101000a900473ffffffffffffffffffffffffffffffffffffffff1673ffffffffffffffffffffffffffffffffffffffff167fb112587e57bfa970257f3d54fc52859c6300f6bd7a982462c320fed45c2530ed60405160405180910390a25050505050565b828054828255906000526020600020908101928215611053579160200282015b828111156110525782518260006101000a81548173ffffffffffffffffffffffffffffffffffffffff021916908373ffffffffffffffffffffffffffffffffffffffff16021790555091602001919060010190610ffa565b5b5090506110609190611064565b5090565b5b8082111561107d576000816000905550600101611065565b5090565b6000604051905090565b600080fd5b600080fd5b6000819050919050565b6110a881611095565b81146110b357600080fd5b50565b6000813590506110c58161109f565b92915050565b600080fd5b6000601f19601f8301169050919050565b7f4e487b7100000000000000000000000000000000000000000000000000000000600052604160045260246000fd5b611119826110d0565b810181811067ffffffffffffffff82111715611138576111376110e1565b5b80604052505050565b600061114b611081565b90506111578282611110565b919050565b600067ffffffffffffffff821115611177576111766110e1565b5b602082029050602081019050919050565b600080fd5b60006111a061119b8461115c565b611141565b905080838252602082019050602084028301858111156111c3576111c2611188565b5b835b818110156111ec57806111d888826110b6565b8452602084019350506020810190506111c5565b5050509392505050565b600082601f83011261120b5761120a6110cb565b5b813561121b84826020860161118d565b91505092915050565b6000806040838503121561123b5761123a61108b565b5b6000611249858286016110b6565b925050602083013567ffffffffffffffff81111561126a57611269611090565b5b611276858286016111f6565b9150509250929050565b61128981611095565b82525050565b60006020820190506112a46000830184611280565b92915050565b600080fd5b60008083601f8401126112c5576112c46110cb565b5b8235905067ffffffffffffffff8111156112e2576112e16112aa565b5b6020830191508360018202830111156112fe576112fd611188565b5b9250929050565b6000806020838503121561131c5761131b61108b565b5b600083013567ffffffffffffffff81111561133a57611339611090565b5b611346858286016112af565b92509250509250929050565b600081519050919050565b600082825260208201905092915050565b6000819050602082019050919050565b600073ffffffffffffffffffffffffffffffffffffffff82169050919050565b60006113a98261137e565b9050919050565b6113b98161139e565b82525050565b60006113cb83836113b0565b60208301905092915050565b6000602082019050919050565b60006113ef82611352565b6113f9818561135d565b93506114048361136e565b8060005b8381101561143557815161141c88826113bf565b9750611427836113d7565b925050600181019050611408565b5085935050505092915050565b6000602082019050818103600083015261145c81846113e4565b905092915050565b600061146f8261137e565b9050919050565b61147f81611464565b811461148a57600080fd5b50565b60008135905061149c81611476565b92915050565b6000602082840312156114b8576114b761108b565b5b60006114c68482850161148d565b91505092915050565b60008115159050919050565b6114e4816114cf565b82525050565b60006020820190506114ff60008301846114db565b92915050565b600080fd5b600067ffffffffffffffff821115611525576115246110e1565b5b61152e826110d0565b9050602081019050919050565b82818337600083830152505050565b600061155d6115588461150a565b611141565b90508281526020810184848401111561157957611578611505565b5b61158484828561153b565b509392505050565b600082601f8301126115a1576115a06110cb565b5b81356115b184826020860161154a565b91505092915050565b6000602082840312156115d0576115cf61108b565b5b600082013567ffffffffffffffff8111156115ee576115ed611090565b5b6115fa8482850161158c565b91505092915050565b600081519050919050565b600082825260208201905092915050565b60005b8381101561163d578082015181840152602081019050611622565b8381111561164c576000848401525b50505050565b600061165d82611603565b611667818561160e565b935061167781856020860161161f565b611680816110d0565b840191505092915050565b60006040820190506116a060008301856114db565b81810360208301526116b28184611652565b90509392505050565b6116c481611464565b82525050565b60006020820190506116df60008301846116bb565b92915050565b600067ffffffffffffffff82169050919050565b611702816116e5565b82525050565b600060208201905061171d60008301846116f9565b92915050565b600060408201905061173860008301856116bb565b61174560208301846116bb565b9392505050565b6000819050919050565b61175f8161174c565b82525050565b600061ffff82169050919050565b61177c81611765565b82525050565b600063ffffffff82169050919050565b61179b81611782565b82525050565b6000819050919050565b6000819050919050565b60006117d06117cb6117c6846117a1565b6117ab565b611782565b9050919050565b6117e0816117b5565b82525050565b600060a0820190506117fb6000830188611756565b61180860208301876116f9565b6118156040830186611773565b6118226060830185611792565b61182f60808301846117d7565b9695505050505050565b6000815190506118488161109f565b92915050565b6000602082840312156118645761186361108b565b5b600061187284828501611839565b91505092915050565b7f4e487b7100000000000000000000000000000000000000000000000000000000600052601160045260246000fd5b60006118b582611095565b91506118c083611095565b9250828210156118d3576118d261187b565b5b828203905092915050565b60006118e982611095565b91506118f483611095565b9250827fffffffffffffffffffffffffffffffffffffffffffffffffffffffffffffffff038211156119295761192861187b565b5b828201905092915050565b7f4e487b7100000000000000000000000000000000000000000000000000000000600052603260045260246000fd5b7f4e487b7100000000000000000000000000000000000000000000000000000000600052601260045260246000fd5b600061199d82611095565b91506119a883611095565b9250826119b8576119b7611963565b5b828206905092915050565b60006119ce82611095565b91507fffffffffffffffffffffffffffffffffffffffffffffffffffffffffffffffff8203611a00576119ff61187b565b5b600182019050919050565b600081905092915050565b50565b6000611a26600083611a0b565b9150611a3182611a16565b600082019050919050565b6000611a4782611a19565b915081905091905056fea2646970667358221220e9e7817022ab61f4b648fefc1eb64b1c6baede95f4156a81f390e946c59aa87a64736f6c634300080f0033",
  "devdoc": {
    "author": "chain xvi",
    "details": "This contract uses chainlink oracles for Keepers to automate the execution and for VRF to get random number to pick winner",
    "kind": "dev",
    "methods": {
      "enterLottery()": {
        "details": "This function checks if the lottery is playable to make sure the player enters where no previous winner is being picked by the VRF. It also checks if the minimum amount is equal or above the minimum."
      },
      "getInterval()": {
        "returns": {
          "_0": "i_interval as uint256"
        }
      },
      "getLastTimeStamp()": {
        "returns": {
          "_0": "s_lastTimeStamp as uint256"
        }
      },
      "getLotteryAmount()": {
        "returns": {
          "_0": "s_lotteryAmount as uint256"
        }
      },
      "getLotteryPlayable()": {
        "returns": {
          "_0": "s_lotteryPlayable as bool"
        }
      },
      "getMinEntranceFee()": {
        "returns": {
          "_0": "i_minEntranceFee as uint256"
        }
      },
      "getNumberOfParticipants()": {
        "returns": {
          "_0": "s_participants.length as uint256"
        }
      },
      "getParticipants()": {
        "returns": {
          "_0": "s_participants as address[]"
        }
      },
      "getSubscriptionId()": {
        "returns": {
          "_0": "i_subscriptionId as uint256"
        }
      },
      "getTotalPlayedAmount()": {
        "returns": {
          "_0": "s_totalPlayedAmount as uint256"
        }
      },
      "getWinner()": {
        "returns": {
          "_0": "s_winner as address"
        }
      }
    },
    "title": "A lottery contract",
    "version": 1
  },
  "userdoc": {
    "kind": "user",
    "methods": {
      "enterLottery()": {
        "notice": "Allows participants to enter the lottery"
      },
      "getInterval()": {
        "notice": "Returns the interval"
      },
      "getLastTimeStamp()": {
        "notice": "Returns the last time stamp"
      },
      "getLotteryAmount()": {
        "notice": "Returns the lottery amount"
      },
      "getLotteryPlayable()": {
        "notice": "Returns the lottery playable state"
      },
      "getMinEntranceFee()": {
        "notice": "Returns the min entrance fee"
      },
      "getNumberOfParticipants()": {
        "notice": "Returns the number of participants"
      },
      "getParticipants()": {
        "notice": "Returns the participants"
      },
      "getSubscriptionId()": {
        "notice": "Returns the subscriptionId"
      },
      "getTotalPlayedAmount()": {
        "notice": "Returns the total played amount of the lottery"
      },
      "getWinner()": {
        "notice": "Returns the winner"
      }
    },
    "notice": "A lottery where participants enter and after an interval a winner is picked",
    "version": 1
  },
  "storageLayout": {
    "storage": [
      {
        "astId": 905,
        "contract": "contracts/Lottery.sol:Lottery",
        "label": "s_participants",
        "offset": 0,
        "slot": "0",
        "type": "t_array(t_address_payable)dyn_storage"
      },
      {
        "astId": 909,
        "contract": "contracts/Lottery.sol:Lottery",
        "label": "s_participantToAmount",
        "offset": 0,
        "slot": "1",
        "type": "t_mapping(t_address,t_uint256)"
      },
      {
        "astId": 913,
        "contract": "contracts/Lottery.sol:Lottery",
        "label": "s_participantToExists",
        "offset": 0,
        "slot": "2",
        "type": "t_mapping(t_address,t_bool)"
      },
      {
        "astId": 917,
        "contract": "contracts/Lottery.sol:Lottery",
        "label": "s_participantToDateEntered",
        "offset": 0,
        "slot": "3",
        "type": "t_mapping(t_address,t_uint256)"
      },
      {
        "astId": 919,
        "contract": "contracts/Lottery.sol:Lottery",
        "label": "s_winner",
        "offset": 0,
        "slot": "4",
        "type": "t_address"
      },
      {
        "astId": 921,
        "contract": "contracts/Lottery.sol:Lottery",
        "label": "s_lotteryPlayable",
        "offset": 20,
        "slot": "4",
        "type": "t_bool"
      },
      {
        "astId": 925,
        "contract": "contracts/Lottery.sol:Lottery",
        "label": "s_lotteryAmount",
        "offset": 0,
        "slot": "5",
        "type": "t_uint256"
      },
      {
        "astId": 927,
        "contract": "contracts/Lottery.sol:Lottery",
        "label": "s_totalPlayedAmount",
        "offset": 0,
        "slot": "6",
        "type": "t_uint256"
      },
      {
        "astId": 930,
        "contract": "contracts/Lottery.sol:Lottery",
        "label": "COORDINATOR",
        "offset": 0,
        "slot": "7",
        "type": "t_contract(VRFCoordinatorV2Interface)299"
      },
      {
        "astId": 934,
        "contract": "contracts/Lottery.sol:Lottery",
        "label": "i_keyHash",
        "offset": 0,
        "slot": "8",
        "type": "t_bytes32"
      },
      {
        "astId": 939,
        "contract": "contracts/Lottery.sol:Lottery",
        "label": "i_gasLimit",
        "offset": 0,
        "slot": "9",
        "type": "t_uint32"
      },
      {
        "astId": 941,
        "contract": "contracts/Lottery.sol:Lottery",
        "label": "s_lastTimeStamp",
        "offset": 0,
        "slot": "10",
        "type": "t_uint256"
      }
    ],
    "types": {
      "t_address": {
        "encoding": "inplace",
        "label": "address",
        "numberOfBytes": "20"
      },
      "t_address_payable": {
        "encoding": "inplace",
        "label": "address payable",
        "numberOfBytes": "20"
      },
      "t_array(t_address_payable)dyn_storage": {
        "base": "t_address_payable",
        "encoding": "dynamic_array",
        "label": "address payable[]",
        "numberOfBytes": "32"
      },
      "t_bool": {
        "encoding": "inplace",
        "label": "bool",
        "numberOfBytes": "1"
      },
      "t_bytes32": {
        "encoding": "inplace",
        "label": "bytes32",
        "numberOfBytes": "32"
      },
      "t_contract(VRFCoordinatorV2Interface)299": {
        "encoding": "inplace",
        "label": "contract VRFCoordinatorV2Interface",
        "numberOfBytes": "20"
      },
      "t_mapping(t_address,t_bool)": {
        "encoding": "mapping",
        "key": "t_address",
        "label": "mapping(address => bool)",
        "numberOfBytes": "32",
        "value": "t_bool"
      },
      "t_mapping(t_address,t_uint256)": {
        "encoding": "mapping",
        "key": "t_address",
        "label": "mapping(address => uint256)",
        "numberOfBytes": "32",
        "value": "t_uint256"
      },
      "t_uint256": {
        "encoding": "inplace",
        "label": "uint256",
        "numberOfBytes": "32"
      },
      "t_uint32": {
        "encoding": "inplace",
        "label": "uint32",
        "numberOfBytes": "4"
      }
    }
  }
}