{
  "address": "0x740A95B8939bB56473E331A6Dacca9EC8b219eaC",
  "abi": [
    {
      "inputs": [
        {
          "internalType": "uint64",
          "name": "subscriptionId",
          "type": "uint64"
        },
        {
          "internalType": "address",
          "name": "vrfCoordinator",
          "type": "address"
        },
        {
          "internalType": "bytes32",
          "name": "keyHash",
          "type": "bytes32"
        },
        {
          "internalType": "uint32",
          "name": "gasLimit",
          "type": "uint32"
        },
        {
          "internalType": "uint256",
          "name": "intervalSeconds",
          "type": "uint256"
        },
        {
          "internalType": "uint256",
          "name": "minEntranceFee",
          "type": "uint256"
        }
      ],
      "stateMutability": "nonpayable",
      "type": "constructor"
    },
    {
      "inputs": [],
      "name": "Lottery__CannotPlayTwice",
      "type": "error"
    },
    {
      "inputs": [],
      "name": "Lottery__LotteryUnplayable",
      "type": "error"
    },
    {
      "inputs": [],
      "name": "Lottery__NotEnoughFundToParticipate",
      "type": "error"
    },
    {
      "inputs": [],
      "name": "Lottery__NotSentToWinner",
      "type": "error"
    },
    {
      "inputs": [],
      "name": "Lottery__PerformUpkeepNotYetNeeded",
      "type": "error"
    },
    {
      "inputs": [
        {
          "internalType": "address",
          "name": "have",
          "type": "address"
        },
        {
          "internalType": "address",
          "name": "want",
          "type": "address"
        }
      ],
      "name": "OnlyCoordinatorCanFulfill",
      "type": "error"
    },
    {
      "anonymous": false,
      "inputs": [
        {
          "indexed": true,
          "internalType": "address",
          "name": "participant",
          "type": "address"
        }
      ],
      "name": "LotteryEntered",
      "type": "event"
    },
    {
      "anonymous": false,
      "inputs": [
        {
          "indexed": true,
          "internalType": "address",
          "name": "winner",
          "type": "address"
        }
      ],
      "name": "PickedWinner",
      "type": "event"
    },
    {
      "anonymous": false,
      "inputs": [
        {
          "indexed": true,
          "internalType": "uint256",
          "name": "requestId",
          "type": "uint256"
        }
      ],
      "name": "RequestedLotteryWinner",
      "type": "event"
    },
    {
      "anonymous": false,
      "inputs": [
        {
          "indexed": true,
          "internalType": "uint256",
          "name": "randomNumber",
          "type": "uint256"
        }
      ],
      "name": "fulfillRandomWordsCalled",
      "type": "event"
    },
    {
      "inputs": [
        {
          "internalType": "bytes",
          "name": "",
          "type": "bytes"
        }
      ],
      "name": "checkUpkeep",
      "outputs": [
        {
          "internalType": "bool",
          "name": "upkeepNeeded",
          "type": "bool"
        },
        {
          "internalType": "bytes",
          "name": "",
          "type": "bytes"
        }
      ],
      "stateMutability": "view",
      "type": "function"
    },
    {
      "inputs": [],
      "name": "enterLottery",
      "outputs": [],
      "stateMutability": "payable",
      "type": "function"
    },
    {
      "inputs": [],
      "name": "getInterval",
      "outputs": [
        {
          "internalType": "uint256",
          "name": "",
          "type": "uint256"
        }
      ],
      "stateMutability": "view",
      "type": "function"
    },
    {
      "inputs": [],
      "name": "getLastTimeStamp",
      "outputs": [
        {
          "internalType": "uint256",
          "name": "",
          "type": "uint256"
        }
      ],
      "stateMutability": "view",
      "type": "function"
    },
    {
      "inputs": [],
      "name": "getLotteryAmount",
      "outputs": [
        {
          "internalType": "uint256",
          "name": "",
          "type": "uint256"
        }
      ],
      "stateMutability": "view",
      "type": "function"
    },
    {
      "inputs": [],
      "name": "getLotteryPlayable",
      "outputs": [
        {
          "internalType": "bool",
          "name": "",
          "type": "bool"
        }
      ],
      "stateMutability": "view",
      "type": "function"
    },
    {
      "inputs": [],
      "name": "getMinEntranceFee",
      "outputs": [
        {
          "internalType": "uint256",
          "name": "",
          "type": "uint256"
        }
      ],
      "stateMutability": "view",
      "type": "function"
    },
    {
      "inputs": [],
      "name": "getNumberOfParticipants",
      "outputs": [
        {
          "internalType": "uint256",
          "name": "",
          "type": "uint256"
        }
      ],
      "stateMutability": "view",
      "type": "function"
    },
    {
      "inputs": [],
      "name": "getParticipants",
      "outputs": [
        {
          "internalType": "address payable[]",
          "name": "",
          "type": "address[]"
        }
      ],
      "stateMutability": "view",
      "type": "function"
    },
    {
      "inputs": [],
      "name": "getSubscriptionId",
      "outputs": [
        {
          "internalType": "uint64",
          "name": "",
          "type": "uint64"
        }
      ],
      "stateMutability": "view",
      "type": "function"
    },
    {
      "inputs": [],
      "name": "getTotalPlayedAmount",
      "outputs": [
        {
          "internalType": "uint256",
          "name": "",
          "type": "uint256"
        }
      ],
      "stateMutability": "view",
      "type": "function"
    },
    {
      "inputs": [],
      "name": "getWinner",
      "outputs": [
        {
          "internalType": "address",
          "name": "",
          "type": "address"
        }
      ],
      "stateMutability": "view",
      "type": "function"
    },
    {
      "inputs": [
        {
          "internalType": "bytes",
          "name": "",
          "type": "bytes"
        }
      ],
      "name": "performUpkeep",
      "outputs": [],
      "stateMutability": "nonpayable",
      "type": "function"
    },
    {
      "inputs": [
        {
          "internalType": "uint256",
          "name": "requestId",
          "type": "uint256"
        },
        {
          "internalType": "uint256[]",
          "name": "randomWords",
          "type": "uint256[]"
        }
      ],
      "name": "rawFulfillRandomWords",
      "outputs": [],
      "stateMutability": "nonpayable",
      "type": "function"
    },
    {
      "inputs": [
        {
          "internalType": "address",
          "name": "",
          "type": "address"
        }
      ],
      "name": "s_participantToAmount",
      "outputs": [
        {
          "internalType": "uint256",
          "name": "",
          "type": "uint256"
        }
      ],
      "stateMutability": "view",
      "type": "function"
    },
    {
      "inputs": [
        {
          "internalType": "address",
          "name": "",
          "type": "address"
        }
      ],
      "name": "s_participantToExists",
      "outputs": [
        {
          "internalType": "bool",
          "name": "",
          "type": "bool"
        }
      ],
      "stateMutability": "view",
      "type": "function"
    }
  ],
  "transactionHash": "0xd30211ec888d70a4101f9d81775f2ef02865a9ba3733700aeb0580b97edcf5b8",
  "args": [
    7761,
    "0x6168499c0cFfCaCD319c818142124B7A15E857ab",
    "0xd89b2bf150e3b9e13446986e571fb9cab24b13cea0a43ea20a6049a85cc807cc",
    1000000,
    300,
    "10000000000000000"
  ],
  "numDeployments": 11,
  "solcInputHash": "ded80acda57d2969fb15160fb126b7ae",
  "bytecode": "0x6101206040523480156200001257600080fd5b5060405162001d0e38038062001d0e8339818101604052810190620000389190620002c5565b848073ffffffffffffffffffffffffffffffffffffffff1660808173ffffffffffffffffffffffffffffffffffffffff16815250505084600660006101000a81548173ffffffffffffffffffffffffffffffffffffffff021916908373ffffffffffffffffffffffffffffffffffffffff1602179055503373ffffffffffffffffffffffffffffffffffffffff1660a08173ffffffffffffffffffffffffffffffffffffffff16815250508161010081815250506001600360146101000a81548160ff021916908315150217905550836007819055508060c081815250508567ffffffffffffffff1660e08167ffffffffffffffff168152505082600860006101000a81548163ffffffff021916908363ffffffff16021790555050505050505062000361565b600080fd5b600067ffffffffffffffff82169050919050565b620001838162000164565b81146200018f57600080fd5b50565b600081519050620001a38162000178565b92915050565b600073ffffffffffffffffffffffffffffffffffffffff82169050919050565b6000620001d682620001a9565b9050919050565b620001e881620001c9565b8114620001f457600080fd5b50565b6000815190506200020881620001dd565b92915050565b6000819050919050565b62000223816200020e565b81146200022f57600080fd5b50565b600081519050620002438162000218565b92915050565b600063ffffffff82169050919050565b620002648162000249565b81146200027057600080fd5b50565b600081519050620002848162000259565b92915050565b6000819050919050565b6200029f816200028a565b8114620002ab57600080fd5b50565b600081519050620002bf8162000294565b92915050565b60008060008060008060c08789031215620002e557620002e46200015f565b5b6000620002f589828a0162000192565b96505060206200030889828a01620001f7565b95505060406200031b89828a0162000232565b94505060606200032e89828a0162000273565b93505060806200034189828a01620002ae565b92505060a06200035489828a01620002ae565b9150509295509295509295565b60805160a05160c05160e0516101005161194f620003bf600039600081816106f0015261079e0152600081816105560152610aa601526000818161047e0152610814015260005050600081816103bc0152610410015261194f6000f3fe6080604052600436106100f35760003560e01c80638e7ea5b21161008a578063c1c244e811610059578063c1c244e81461030e578063c80c28a214610339578063de3d9fb714610364578063ec2c499b1461038f576100f3565b80638e7ea5b21461028357806391ad27b4146102ae578063a537e19d146102d9578063c1af578514610304576100f3565b8063625cfb9e116100c6578063625cfb9e146101a05780636741636a146101dd5780636e04ff0d1461021a5780638172135e14610258576100f3565b80631fe543e3146100f85780633b35c517146101215780634585e33b1461014c5780635aa68ac014610175575b600080fd5b34801561010457600080fd5b5061011f600480360381019061011a91906110ec565b6103ba565b005b34801561012d57600080fd5b5061013661047a565b6040516101439190611157565b60405180910390f35b34801561015857600080fd5b50610173600480360381019061016e91906111cd565b6104a2565b005b34801561018157600080fd5b5061018a610624565b604051610197919061130a565b60405180910390f35b3480156101ac57600080fd5b506101c760048036038101906101c2919061136a565b6106b2565b6040516101d49190611157565b60405180910390f35b3480156101e957600080fd5b5061020460048036038101906101ff919061136a565b6106ca565b60405161021191906113b2565b60405180910390f35b34801561022657600080fd5b50610241600480360381019061023c9190611482565b6106ea565b60405161024f929190611553565b60405180910390f35b34801561026457600080fd5b5061026d610759565b60405161027a91906113b2565b60405180910390f35b34801561028f57600080fd5b50610298610770565b6040516102a59190611592565b60405180910390f35b3480156102ba57600080fd5b506102c361079a565b6040516102d09190611157565b60405180910390f35b3480156102e557600080fd5b506102ee6107c2565b6040516102fb9190611157565b60405180910390f35b61030c6107cc565b005b34801561031a57600080fd5b50610323610a8c565b6040516103309190611157565b60405180910390f35b34801561034557600080fd5b5061034e610a96565b60405161035b9190611157565b60405180910390f35b34801561037057600080fd5b50610379610aa2565b60405161038691906115d0565b60405180910390f35b34801561039b57600080fd5b506103a4610aca565b6040516103b19190611157565b60405180910390f35b7f000000000000000000000000000000000000000000000000000000000000000073ffffffffffffffffffffffffffffffffffffffff163373ffffffffffffffffffffffffffffffffffffffff161461046c57337f00000000000000000000000000000000000000000000000000000000000000006040517f1cf993f40000000000000000000000000000000000000000000000000000000081526004016104639291906115eb565b60405180910390fd5b6104768282610ad4565b5050565b60007f0000000000000000000000000000000000000000000000000000000000000000905090565b60006104bc604051806020016040528060008152506106ea565b509050806104f6576040517f621418c600000000000000000000000000000000000000000000000000000000815260040160405180910390fd5b6000600360146101000a81548160ff0219169083151502179055506000600660009054906101000a900473ffffffffffffffffffffffffffffffffffffffff1673ffffffffffffffffffffffffffffffffffffffff16635d3b1d306007547f00000000000000000000000000000000000000000000000000000000000000006003600860009054906101000a900463ffffffff1660016040518663ffffffff1660e01b81526004016105ac9594939291906116ae565b6020604051808303816000875af11580156105cb573d6000803e3d6000fd5b505050506040513d601f19601f820116820180604052508101906105ef9190611716565b9050807febf56642252004c18a776f30d528e7a0ce8c5db14b6596fb6550f630c8a24c6c60405160405180910390a250505050565b606060008054806020026020016040519081016040528092919081815260200182805480156106a857602002820191906000526020600020905b8160009054906101000a900473ffffffffffffffffffffffffffffffffffffffff1673ffffffffffffffffffffffffffffffffffffffff168152602001906001019080831161065e575b5050505050905090565b60016020528060005260406000206000915090505481565b60026020528060005260406000206000915054906101000a900460ff1681565b600060607f00000000000000000000000000000000000000000000000000000000000000006009544261071d9190611772565b11801561072e575060008080549050115b801561073a5750600047115b80156107525750600360149054906101000a900460ff165b9150915091565b6000600360149054906101000a900460ff16905090565b6000600360009054906101000a900473ffffffffffffffffffffffffffffffffffffffff16905090565b60007f0000000000000000000000000000000000000000000000000000000000000000905090565b6000600454905090565b600360149054906101000a900460ff16610812576040517f708c8a7800000000000000000000000000000000000000000000000000000000815260040160405180910390fd5b7f000000000000000000000000000000000000000000000000000000000000000034101561086c576040517f12afd2a900000000000000000000000000000000000000000000000000000000815260040160405180910390fd5b600260003373ffffffffffffffffffffffffffffffffffffffff1673ffffffffffffffffffffffffffffffffffffffff16815260200190815260200160002060009054906101000a900460ff16156108f0576040517f30337efc00000000000000000000000000000000000000000000000000000000815260040160405180910390fd5b600080805490500361090457426009819055505b6001600260003373ffffffffffffffffffffffffffffffffffffffff1673ffffffffffffffffffffffffffffffffffffffff16815260200190815260200160002060006101000a81548160ff02191690831515021790555034600160003373ffffffffffffffffffffffffffffffffffffffff1673ffffffffffffffffffffffffffffffffffffffff16815260200190815260200160002060008282546109ab91906117a6565b9250508190555034600460008282546109c491906117a6565b9250508190555034600560008282546109dd91906117a6565b925050819055506000339080600181540180825580915050600190039060005260206000200160009091909190916101000a81548173ffffffffffffffffffffffffffffffffffffffff021916908373ffffffffffffffffffffffffffffffffffffffff1602179055503373ffffffffffffffffffffffffffffffffffffffff167f4c72b57c1ca715219cf2c7be9edc8a3ea19dfb9a76fb7a05e2a8062a027ee97060405160405180910390a2565b6000600954905090565b60008080549050905090565b60007f0000000000000000000000000000000000000000000000000000000000000000905090565b6000600554905090565b6001600360146101000a81548160ff0219169083151502179055506000808054905082600081518110610b0a57610b096117fc565b5b6020026020010151610b1c919061185a565b90506000808281548110610b3357610b326117fc565b5b9060005260206000200160009054906101000a900473ffffffffffffffffffffffffffffffffffffffff16905080600360006101000a81548173ffffffffffffffffffffffffffffffffffffffff021916908373ffffffffffffffffffffffffffffffffffffffff16021790555060005b600080549050811015610cdb57600060016000808481548110610bca57610bc96117fc565b5b9060005260206000200160009054906101000a900473ffffffffffffffffffffffffffffffffffffffff1673ffffffffffffffffffffffffffffffffffffffff1673ffffffffffffffffffffffffffffffffffffffff16815260200190815260200160002081905550600060026000808481548110610c4c57610c4b6117fc565b5b9060005260206000200160009054906101000a900473ffffffffffffffffffffffffffffffffffffffff1673ffffffffffffffffffffffffffffffffffffffff1673ffffffffffffffffffffffffffffffffffffffff16815260200190815260200160002060006101000a81548160ff0219169083151502179055508080610cd39061188b565b915050610ba4565b506000600481905550600067ffffffffffffffff811115610cff57610cfe610fa9565b5b604051908082528060200260200182016040528015610d2d5781602001602082028036833780820191505090505b5060009080519060200190610d43929190610ea2565b50817f09e294e58e780fbc63e7c6bb5f6b934526ad1230a88283cd5e20542cde01cef060405160405180910390a26000600360009054906101000a900473ffffffffffffffffffffffffffffffffffffffff1673ffffffffffffffffffffffffffffffffffffffff1647604051610db990611904565b60006040518083038185875af1925050503d8060008114610df6576040519150601f19603f3d011682016040523d82523d6000602084013e610dfb565b606091505b5050905080610e36576040517fcd1b9c7100000000000000000000000000000000000000000000000000000000815260040160405180910390fd5b600360009054906101000a900473ffffffffffffffffffffffffffffffffffffffff1673ffffffffffffffffffffffffffffffffffffffff167fb112587e57bfa970257f3d54fc52859c6300f6bd7a982462c320fed45c2530ed60405160405180910390a25050505050565b828054828255906000526020600020908101928215610f1b579160200282015b82811115610f1a5782518260006101000a81548173ffffffffffffffffffffffffffffffffffffffff021916908373ffffffffffffffffffffffffffffffffffffffff16021790555091602001919060010190610ec2565b5b509050610f289190610f2c565b5090565b5b80821115610f45576000816000905550600101610f2d565b5090565b6000604051905090565b600080fd5b600080fd5b6000819050919050565b610f7081610f5d565b8114610f7b57600080fd5b50565b600081359050610f8d81610f67565b92915050565b600080fd5b6000601f19601f8301169050919050565b7f4e487b7100000000000000000000000000000000000000000000000000000000600052604160045260246000fd5b610fe182610f98565b810181811067ffffffffffffffff8211171561100057610fff610fa9565b5b80604052505050565b6000611013610f49565b905061101f8282610fd8565b919050565b600067ffffffffffffffff82111561103f5761103e610fa9565b5b602082029050602081019050919050565b600080fd5b600061106861106384611024565b611009565b9050808382526020820190506020840283018581111561108b5761108a611050565b5b835b818110156110b457806110a08882610f7e565b84526020840193505060208101905061108d565b5050509392505050565b600082601f8301126110d3576110d2610f93565b5b81356110e3848260208601611055565b91505092915050565b6000806040838503121561110357611102610f53565b5b600061111185828601610f7e565b925050602083013567ffffffffffffffff81111561113257611131610f58565b5b61113e858286016110be565b9150509250929050565b61115181610f5d565b82525050565b600060208201905061116c6000830184611148565b92915050565b600080fd5b60008083601f84011261118d5761118c610f93565b5b8235905067ffffffffffffffff8111156111aa576111a9611172565b5b6020830191508360018202830111156111c6576111c5611050565b5b9250929050565b600080602083850312156111e4576111e3610f53565b5b600083013567ffffffffffffffff81111561120257611201610f58565b5b61120e85828601611177565b92509250509250929050565b600081519050919050565b600082825260208201905092915050565b6000819050602082019050919050565b600073ffffffffffffffffffffffffffffffffffffffff82169050919050565b600061127182611246565b9050919050565b61128181611266565b82525050565b60006112938383611278565b60208301905092915050565b6000602082019050919050565b60006112b78261121a565b6112c18185611225565b93506112cc83611236565b8060005b838110156112fd5781516112e48882611287565b97506112ef8361129f565b9250506001810190506112d0565b5085935050505092915050565b6000602082019050818103600083015261132481846112ac565b905092915050565b600061133782611246565b9050919050565b6113478161132c565b811461135257600080fd5b50565b6000813590506113648161133e565b92915050565b6000602082840312156113805761137f610f53565b5b600061138e84828501611355565b91505092915050565b60008115159050919050565b6113ac81611397565b82525050565b60006020820190506113c760008301846113a3565b92915050565b600080fd5b600067ffffffffffffffff8211156113ed576113ec610fa9565b5b6113f682610f98565b9050602081019050919050565b82818337600083830152505050565b6000611425611420846113d2565b611009565b905082815260208101848484011115611441576114406113cd565b5b61144c848285611403565b509392505050565b600082601f83011261146957611468610f93565b5b8135611479848260208601611412565b91505092915050565b60006020828403121561149857611497610f53565b5b600082013567ffffffffffffffff8111156114b6576114b5610f58565b5b6114c284828501611454565b91505092915050565b600081519050919050565b600082825260208201905092915050565b60005b838110156115055780820151818401526020810190506114ea565b83811115611514576000848401525b50505050565b6000611525826114cb565b61152f81856114d6565b935061153f8185602086016114e7565b61154881610f98565b840191505092915050565b600060408201905061156860008301856113a3565b818103602083015261157a818461151a565b90509392505050565b61158c8161132c565b82525050565b60006020820190506115a76000830184611583565b92915050565b600067ffffffffffffffff82169050919050565b6115ca816115ad565b82525050565b60006020820190506115e560008301846115c1565b92915050565b60006040820190506116006000830185611583565b61160d6020830184611583565b9392505050565b6000819050919050565b61162781611614565b82525050565b600061ffff82169050919050565b6116448161162d565b82525050565b600063ffffffff82169050919050565b6116638161164a565b82525050565b6000819050919050565b6000819050919050565b600061169861169361168e84611669565b611673565b61164a565b9050919050565b6116a88161167d565b82525050565b600060a0820190506116c3600083018861161e565b6116d060208301876115c1565b6116dd604083018661163b565b6116ea606083018561165a565b6116f7608083018461169f565b9695505050505050565b60008151905061171081610f67565b92915050565b60006020828403121561172c5761172b610f53565b5b600061173a84828501611701565b91505092915050565b7f4e487b7100000000000000000000000000000000000000000000000000000000600052601160045260246000fd5b600061177d82610f5d565b915061178883610f5d565b92508282101561179b5761179a611743565b5b828203905092915050565b60006117b182610f5d565b91506117bc83610f5d565b9250827fffffffffffffffffffffffffffffffffffffffffffffffffffffffffffffffff038211156117f1576117f0611743565b5b828201905092915050565b7f4e487b7100000000000000000000000000000000000000000000000000000000600052603260045260246000fd5b7f4e487b7100000000000000000000000000000000000000000000000000000000600052601260045260246000fd5b600061186582610f5d565b915061187083610f5d565b9250826118805761187f61182b565b5b828206905092915050565b600061189682610f5d565b91507fffffffffffffffffffffffffffffffffffffffffffffffffffffffffffffffff82036118c8576118c7611743565b5b600182019050919050565b600081905092915050565b50565b60006118ee6000836118d3565b91506118f9826118de565b600082019050919050565b600061190f826118e1565b915081905091905056fea26469706673582212203c42a23f9c68d7db22718f4d30d16faef77bbee3b43319e222d47ddcb177e60d64736f6c634300080f0033",
  "devdoc": {
    "author": "chain xvi",
    "details": "This contract uses chainlink oracles for Keepers to automate the execution and for VRF to get random number to pick winner",
    "kind": "dev",
    "methods": {
      "enterLottery()": {
        "details": "This function checks if the lottery is playable to make sure the player enters where no previous winner is being picked by the VRF. It also checks if the minimum amount is equal or above the minimum."
      },
      "getInterval()": {
        "returns": {
          "_0": "i_interval as uint256"
        }
      },
      "getLastTimeStamp()": {
        "returns": {
          "_0": "s_lastTimeStamp as uint256"
        }
      },
      "getLotteryAmount()": {
        "returns": {
          "_0": "s_lotteryAmount as uint256"
        }
      },
      "getLotteryPlayable()": {
        "returns": {
          "_0": "s_lotteryPlayable as bool"
        }
      },
      "getMinEntranceFee()": {
        "returns": {
          "_0": "i_minEntranceFee as uint256"
        }
      },
      "getNumberOfParticipants()": {
        "returns": {
          "_0": "s_participants.length as uint256"
        }
      },
      "getParticipants()": {
        "returns": {
          "_0": "s_participants as address[]"
        }
      },
      "getSubscriptionId()": {
        "returns": {
          "_0": "i_subscriptionId as uint256"
        }
      },
      "getTotalPlayedAmount()": {
        "returns": {
          "_0": "s_totalPlayedAmount as uint256"
        }
      },
      "getWinner()": {
        "returns": {
          "_0": "s_winner as address"
        }
      }
    },
    "title": "A lottery contract",
    "version": 1
  },
  "userdoc": {
    "kind": "user",
    "methods": {
      "enterLottery()": {
        "notice": "Allows participants to enter the lottery"
      },
      "getInterval()": {
        "notice": "Returns the interval"
      },
      "getLastTimeStamp()": {
        "notice": "Returns the last time stamp"
      },
      "getLotteryAmount()": {
        "notice": "Returns the lottery amount"
      },
      "getLotteryPlayable()": {
        "notice": "Returns the lottery playable state"
      },
      "getMinEntranceFee()": {
        "notice": "Returns the min entrance fee"
      },
      "getNumberOfParticipants()": {
        "notice": "Returns the number of participants"
      },
      "getParticipants()": {
        "notice": "Returns the participants"
      },
      "getSubscriptionId()": {
        "notice": "Returns the subscriptionId"
      },
      "getTotalPlayedAmount()": {
        "notice": "Returns the total played amount of the lottery"
      },
      "getWinner()": {
        "notice": "Returns the winner"
      }
    },
    "notice": "A lottery where participants enter and after an interval a winner is picked",
    "version": 1
  },
  "storageLayout": {
    "storage": [
      {
        "astId": 231,
        "contract": "contracts/Lottery.sol:Lottery",
        "label": "s_participants",
        "offset": 0,
        "slot": "0",
        "type": "t_array(t_address_payable)dyn_storage"
      },
      {
        "astId": 235,
        "contract": "contracts/Lottery.sol:Lottery",
        "label": "s_participantToAmount",
        "offset": 0,
        "slot": "1",
        "type": "t_mapping(t_address,t_uint256)"
      },
      {
        "astId": 239,
        "contract": "contracts/Lottery.sol:Lottery",
        "label": "s_participantToExists",
        "offset": 0,
        "slot": "2",
        "type": "t_mapping(t_address,t_bool)"
      },
      {
        "astId": 241,
        "contract": "contracts/Lottery.sol:Lottery",
        "label": "s_winner",
        "offset": 0,
        "slot": "3",
        "type": "t_address"
      },
      {
        "astId": 243,
        "contract": "contracts/Lottery.sol:Lottery",
        "label": "s_lotteryPlayable",
        "offset": 20,
        "slot": "3",
        "type": "t_bool"
      },
      {
        "astId": 247,
        "contract": "contracts/Lottery.sol:Lottery",
        "label": "s_lotteryAmount",
        "offset": 0,
        "slot": "4",
        "type": "t_uint256"
      },
      {
        "astId": 249,
        "contract": "contracts/Lottery.sol:Lottery",
        "label": "s_totalPlayedAmount",
        "offset": 0,
        "slot": "5",
        "type": "t_uint256"
      },
      {
        "astId": 252,
        "contract": "contracts/Lottery.sol:Lottery",
        "label": "COORDINATOR",
        "offset": 0,
        "slot": "6",
        "type": "t_contract(VRFCoordinatorV2Interface)204"
      },
      {
        "astId": 256,
        "contract": "contracts/Lottery.sol:Lottery",
        "label": "i_keyHash",
        "offset": 0,
        "slot": "7",
        "type": "t_bytes32"
      },
      {
        "astId": 261,
        "contract": "contracts/Lottery.sol:Lottery",
        "label": "i_gasLimit",
        "offset": 0,
        "slot": "8",
        "type": "t_uint32"
      },
      {
        "astId": 263,
        "contract": "contracts/Lottery.sol:Lottery",
        "label": "s_lastTimeStamp",
        "offset": 0,
        "slot": "9",
        "type": "t_uint256"
      }
    ],
    "types": {
      "t_address": {
        "encoding": "inplace",
        "label": "address",
        "numberOfBytes": "20"
      },
      "t_address_payable": {
        "encoding": "inplace",
        "label": "address payable",
        "numberOfBytes": "20"
      },
      "t_array(t_address_payable)dyn_storage": {
        "base": "t_address_payable",
        "encoding": "dynamic_array",
        "label": "address payable[]",
        "numberOfBytes": "32"
      },
      "t_bool": {
        "encoding": "inplace",
        "label": "bool",
        "numberOfBytes": "1"
      },
      "t_bytes32": {
        "encoding": "inplace",
        "label": "bytes32",
        "numberOfBytes": "32"
      },
      "t_contract(VRFCoordinatorV2Interface)204": {
        "encoding": "inplace",
        "label": "contract VRFCoordinatorV2Interface",
        "numberOfBytes": "20"
      },
      "t_mapping(t_address,t_bool)": {
        "encoding": "mapping",
        "key": "t_address",
        "label": "mapping(address => bool)",
        "numberOfBytes": "32",
        "value": "t_bool"
      },
      "t_mapping(t_address,t_uint256)": {
        "encoding": "mapping",
        "key": "t_address",
        "label": "mapping(address => uint256)",
        "numberOfBytes": "32",
        "value": "t_uint256"
      },
      "t_uint256": {
        "encoding": "inplace",
        "label": "uint256",
        "numberOfBytes": "32"
      },
      "t_uint32": {
        "encoding": "inplace",
        "label": "uint32",
        "numberOfBytes": "4"
      }
    }
  }
}