{
  "address": "0x79Cb6dCFdA95C4D366949fe3d3E10ec37c933182",
  "abi": [
    {
      "inputs": [
        {
          "internalType": "uint64",
          "name": "subscriptionId",
          "type": "uint64"
        },
        {
          "internalType": "address",
          "name": "vrfCoordinator",
          "type": "address"
        },
        {
          "internalType": "bytes32",
          "name": "keyHash",
          "type": "bytes32"
        },
        {
          "internalType": "uint32",
          "name": "gasLimit",
          "type": "uint32"
        },
        {
          "internalType": "uint256",
          "name": "intervalSeconds",
          "type": "uint256"
        },
        {
          "internalType": "uint256",
          "name": "minEntranceFee",
          "type": "uint256"
        }
      ],
      "stateMutability": "nonpayable",
      "type": "constructor"
    },
    {
      "inputs": [],
      "name": "Lottery__CannotPlayTwice",
      "type": "error"
    },
    {
      "inputs": [],
      "name": "Lottery__LotteryUnplayable",
      "type": "error"
    },
    {
      "inputs": [],
      "name": "Lottery__NotEnoughFundToParticipate",
      "type": "error"
    },
    {
      "inputs": [],
      "name": "Lottery__NotSentToWinner",
      "type": "error"
    },
    {
      "inputs": [],
      "name": "Lottery__PerformUpkeepNotYetNeeded",
      "type": "error"
    },
    {
      "inputs": [
        {
          "internalType": "address",
          "name": "have",
          "type": "address"
        },
        {
          "internalType": "address",
          "name": "want",
          "type": "address"
        }
      ],
      "name": "OnlyCoordinatorCanFulfill",
      "type": "error"
    },
    {
      "anonymous": false,
      "inputs": [
        {
          "indexed": true,
          "internalType": "address",
          "name": "participant",
          "type": "address"
        }
      ],
      "name": "LotteryEntered",
      "type": "event"
    },
    {
      "anonymous": false,
      "inputs": [
        {
          "indexed": true,
          "internalType": "address",
          "name": "winner",
          "type": "address"
        }
      ],
      "name": "PickedWinner",
      "type": "event"
    },
    {
      "anonymous": false,
      "inputs": [
        {
          "indexed": true,
          "internalType": "uint256",
          "name": "requestId",
          "type": "uint256"
        }
      ],
      "name": "RequestedLotteryWinner",
      "type": "event"
    },
    {
      "anonymous": false,
      "inputs": [
        {
          "indexed": true,
          "internalType": "uint256",
          "name": "randomNumber",
          "type": "uint256"
        }
      ],
      "name": "fulfillRandomWordsCalled",
      "type": "event"
    },
    {
      "inputs": [
        {
          "internalType": "bytes",
          "name": "",
          "type": "bytes"
        }
      ],
      "name": "checkUpkeep",
      "outputs": [
        {
          "internalType": "bool",
          "name": "upkeepNeeded",
          "type": "bool"
        },
        {
          "internalType": "bytes",
          "name": "",
          "type": "bytes"
        }
      ],
      "stateMutability": "view",
      "type": "function"
    },
    {
      "inputs": [],
      "name": "enterLottery",
      "outputs": [],
      "stateMutability": "payable",
      "type": "function"
    },
    {
      "inputs": [],
      "name": "getInterval",
      "outputs": [
        {
          "internalType": "uint256",
          "name": "",
          "type": "uint256"
        }
      ],
      "stateMutability": "view",
      "type": "function"
    },
    {
      "inputs": [],
      "name": "getLastTimeStamp",
      "outputs": [
        {
          "internalType": "uint256",
          "name": "",
          "type": "uint256"
        }
      ],
      "stateMutability": "view",
      "type": "function"
    },
    {
      "inputs": [],
      "name": "getLotteryAmount",
      "outputs": [
        {
          "internalType": "uint256",
          "name": "",
          "type": "uint256"
        }
      ],
      "stateMutability": "view",
      "type": "function"
    },
    {
      "inputs": [],
      "name": "getLotteryPlayable",
      "outputs": [
        {
          "internalType": "bool",
          "name": "",
          "type": "bool"
        }
      ],
      "stateMutability": "view",
      "type": "function"
    },
    {
      "inputs": [],
      "name": "getMinEntranceFee",
      "outputs": [
        {
          "internalType": "uint256",
          "name": "",
          "type": "uint256"
        }
      ],
      "stateMutability": "view",
      "type": "function"
    },
    {
      "inputs": [],
      "name": "getNumberOfParticipants",
      "outputs": [
        {
          "internalType": "uint256",
          "name": "",
          "type": "uint256"
        }
      ],
      "stateMutability": "view",
      "type": "function"
    },
    {
      "inputs": [],
      "name": "getParticipants",
      "outputs": [
        {
          "internalType": "address payable[]",
          "name": "",
          "type": "address[]"
        }
      ],
      "stateMutability": "view",
      "type": "function"
    },
    {
      "inputs": [],
      "name": "getSubscriptionId",
      "outputs": [
        {
          "internalType": "uint64",
          "name": "",
          "type": "uint64"
        }
      ],
      "stateMutability": "view",
      "type": "function"
    },
    {
      "inputs": [],
      "name": "getTotalPlayedAmount",
      "outputs": [
        {
          "internalType": "uint256",
          "name": "",
          "type": "uint256"
        }
      ],
      "stateMutability": "view",
      "type": "function"
    },
    {
      "inputs": [],
      "name": "getWinner",
      "outputs": [
        {
          "internalType": "address",
          "name": "",
          "type": "address"
        }
      ],
      "stateMutability": "view",
      "type": "function"
    },
    {
      "inputs": [
        {
          "internalType": "bytes",
          "name": "",
          "type": "bytes"
        }
      ],
      "name": "performUpkeep",
      "outputs": [],
      "stateMutability": "nonpayable",
      "type": "function"
    },
    {
      "inputs": [
        {
          "internalType": "uint256",
          "name": "requestId",
          "type": "uint256"
        },
        {
          "internalType": "uint256[]",
          "name": "randomWords",
          "type": "uint256[]"
        }
      ],
      "name": "rawFulfillRandomWords",
      "outputs": [],
      "stateMutability": "nonpayable",
      "type": "function"
    }
  ],
  "transactionHash": "0xe84c31f54057178bcab9dcb31ea95b6cd57daa5d501c7ed59d8271c9a16b126c",
  "args": [
    7761,
    "0x6168499c0cFfCaCD319c818142124B7A15E857ab",
    "0xd89b2bf150e3b9e13446986e571fb9cab24b13cea0a43ea20a6049a85cc807cc",
    1000000,
    60,
    "10000000000000000"
  ],
  "numDeployments": 9,
  "solcInputHash": "a5d82628f2bef39651a5e850700e9024",
  "bytecode": "0x6101206040523480156200001257600080fd5b5060405162001bdf38038062001bdf8339818101604052810190620000389190620002cc565b848073ffffffffffffffffffffffffffffffffffffffff1660808173ffffffffffffffffffffffffffffffffffffffff16815250505084600660006101000a81548173ffffffffffffffffffffffffffffffffffffffff021916908373ffffffffffffffffffffffffffffffffffffffff1602179055503373ffffffffffffffffffffffffffffffffffffffff1660a08173ffffffffffffffffffffffffffffffffffffffff16815250508161010081815250506001600460146101000a81548160ff02191690831515021790555042600981905550836007819055508060c081815250508567ffffffffffffffff1660e08167ffffffffffffffff168152505082600860006101000a81548163ffffffff021916908363ffffffff16021790555050505050505062000368565b600080fd5b600067ffffffffffffffff82169050919050565b6200018a816200016b565b81146200019657600080fd5b50565b600081519050620001aa816200017f565b92915050565b600073ffffffffffffffffffffffffffffffffffffffff82169050919050565b6000620001dd82620001b0565b9050919050565b620001ef81620001d0565b8114620001fb57600080fd5b50565b6000815190506200020f81620001e4565b92915050565b6000819050919050565b6200022a8162000215565b81146200023657600080fd5b50565b6000815190506200024a816200021f565b92915050565b600063ffffffff82169050919050565b6200026b8162000250565b81146200027757600080fd5b50565b6000815190506200028b8162000260565b92915050565b6000819050919050565b620002a68162000291565b8114620002b257600080fd5b50565b600081519050620002c6816200029b565b92915050565b60008060008060008060c08789031215620002ec57620002eb62000166565b5b6000620002fc89828a0162000199565b96505060206200030f89828a01620001fe565b95505060406200032289828a0162000239565b94505060606200033589828a016200027a565b93505060806200034889828a01620002b5565b92505060a06200035b89828a01620002b5565b9150509295509295509295565b60805160a05160c05160e05161010051611819620003c66000396000818161062801526106d60152600081816104c601526109ca0152600081816103ee015261074c0152600050506000818161032c015261038001526118196000f3fe6080604052600436106100dd5760003560e01c806391ad27b41161007f578063c1c244e811610059578063c1c244e81461027e578063c80c28a2146102a9578063de3d9fb7146102d4578063ec2c499b146102ff576100dd565b806391ad27b41461021e578063a537e19d14610249578063c1af578514610274576100dd565b80635aa68ac0116100bb5780635aa68ac01461015f5780636e04ff0d1461018a5780638172135e146101c85780638e7ea5b2146101f3576100dd565b80631fe543e3146100e25780633b35c5171461010b5780634585e33b14610136575b600080fd5b3480156100ee57600080fd5b506101096004803603810190610104919061100f565b61032a565b005b34801561011757600080fd5b506101206103ea565b60405161012d919061107a565b60405180910390f35b34801561014257600080fd5b5061015d600480360381019061015891906110f0565b610412565b005b34801561016b57600080fd5b50610174610594565b604051610181919061122d565b60405180910390f35b34801561019657600080fd5b506101b160048036038101906101ac9190611304565b610622565b6040516101bf9291906113f0565b60405180910390f35b3480156101d457600080fd5b506101dd610691565b6040516101ea9190611420565b60405180910390f35b3480156101ff57600080fd5b506102086106a8565b604051610215919061145c565b60405180910390f35b34801561022a57600080fd5b506102336106d2565b604051610240919061107a565b60405180910390f35b34801561025557600080fd5b5061025e6106fa565b60405161026b919061107a565b60405180910390f35b61027c610704565b005b34801561028a57600080fd5b506102936109b0565b6040516102a0919061107a565b60405180910390f35b3480156102b557600080fd5b506102be6109ba565b6040516102cb919061107a565b60405180910390f35b3480156102e057600080fd5b506102e96109c6565b6040516102f6919061149a565b60405180910390f35b34801561030b57600080fd5b506103146109ee565b604051610321919061107a565b60405180910390f35b7f000000000000000000000000000000000000000000000000000000000000000073ffffffffffffffffffffffffffffffffffffffff163373ffffffffffffffffffffffffffffffffffffffff16146103dc57337f00000000000000000000000000000000000000000000000000000000000000006040517f1cf993f40000000000000000000000000000000000000000000000000000000081526004016103d39291906114b5565b60405180910390fd5b6103e682826109f8565b5050565b60007f0000000000000000000000000000000000000000000000000000000000000000905090565b600061042c60405180602001604052806000815250610622565b50905080610466576040517f621418c600000000000000000000000000000000000000000000000000000000815260040160405180910390fd5b6000600460146101000a81548160ff0219169083151502179055506000600660009054906101000a900473ffffffffffffffffffffffffffffffffffffffff1673ffffffffffffffffffffffffffffffffffffffff16635d3b1d306007547f00000000000000000000000000000000000000000000000000000000000000006003600860009054906101000a900463ffffffff1660016040518663ffffffff1660e01b815260040161051c959493929190611578565b6020604051808303816000875af115801561053b573d6000803e3d6000fd5b505050506040513d601f19601f8201168201806040525081019061055f91906115e0565b9050807febf56642252004c18a776f30d528e7a0ce8c5db14b6596fb6550f630c8a24c6c60405160405180910390a250505050565b6060600080548060200260200160405190810160405280929190818152602001828054801561061857602002820191906000526020600020905b8160009054906101000a900473ffffffffffffffffffffffffffffffffffffffff1673ffffffffffffffffffffffffffffffffffffffff16815260200190600101908083116105ce575b5050505050905090565b600060607f000000000000000000000000000000000000000000000000000000000000000060095442610655919061163c565b118015610666575060008080549050115b80156106725750600047115b801561068a5750600460149054906101000a900460ff165b9150915091565b6000600460149054906101000a900460ff16905090565b6000600460009054906101000a900473ffffffffffffffffffffffffffffffffffffffff16905090565b60007f0000000000000000000000000000000000000000000000000000000000000000905090565b6000600354905090565b600460149054906101000a900460ff1661074a576040517f708c8a7800000000000000000000000000000000000000000000000000000000815260040160405180910390fd5b7f00000000000000000000000000000000000000000000000000000000000000003410156107a4576040517f12afd2a900000000000000000000000000000000000000000000000000000000815260040160405180910390fd5b600260003373ffffffffffffffffffffffffffffffffffffffff1673ffffffffffffffffffffffffffffffffffffffff16815260200190815260200160002060009054906101000a900460ff1615610828576040517f30337efc00000000000000000000000000000000000000000000000000000000815260040160405180910390fd5b6001600260003373ffffffffffffffffffffffffffffffffffffffff1673ffffffffffffffffffffffffffffffffffffffff16815260200190815260200160002060006101000a81548160ff02191690831515021790555034600360008282546108929190611670565b925050819055506000339080600181540180825580915050600190039060005260206000200160009091909190916101000a81548173ffffffffffffffffffffffffffffffffffffffff021916908373ffffffffffffffffffffffffffffffffffffffff16021790555034600160003373ffffffffffffffffffffffffffffffffffffffff1673ffffffffffffffffffffffffffffffffffffffff168152602001908152602001600020600082825461094b9190611670565b9250508190555034600560008282546109649190611670565b925050819055503373ffffffffffffffffffffffffffffffffffffffff167f4c72b57c1ca715219cf2c7be9edc8a3ea19dfb9a76fb7a05e2a8062a027ee97060405160405180910390a2565b6000600954905090565b60008080549050905090565b60007f0000000000000000000000000000000000000000000000000000000000000000905090565b6000600554905090565b6001600460146101000a81548160ff0219169083151502179055506000808054905082600081518110610a2e57610a2d6116c6565b5b6020026020010151610a409190611724565b90506000808281548110610a5757610a566116c6565b5b9060005260206000200160009054906101000a900473ffffffffffffffffffffffffffffffffffffffff16905080600460006101000a81548173ffffffffffffffffffffffffffffffffffffffff021916908373ffffffffffffffffffffffffffffffffffffffff16021790555060005b600080549050811015610bff57600060016000808481548110610aee57610aed6116c6565b5b9060005260206000200160009054906101000a900473ffffffffffffffffffffffffffffffffffffffff1673ffffffffffffffffffffffffffffffffffffffff1673ffffffffffffffffffffffffffffffffffffffff16815260200190815260200160002081905550600060026000808481548110610b7057610b6f6116c6565b5b9060005260206000200160009054906101000a900473ffffffffffffffffffffffffffffffffffffffff1673ffffffffffffffffffffffffffffffffffffffff1673ffffffffffffffffffffffffffffffffffffffff16815260200190815260200160002060006101000a81548160ff0219169083151502179055508080610bf790611755565b915050610ac8565b50600067ffffffffffffffff811115610c1b57610c1a610ecc565b5b604051908082528060200260200182016040528015610c495781602001602082028036833780820191505090505b5060009080519060200190610c5f929190610dc5565b5042600981905550817f09e294e58e780fbc63e7c6bb5f6b934526ad1230a88283cd5e20542cde01cef060405160405180910390a26000600460009054906101000a900473ffffffffffffffffffffffffffffffffffffffff1673ffffffffffffffffffffffffffffffffffffffff1647604051610cdc906117ce565b60006040518083038185875af1925050503d8060008114610d19576040519150601f19603f3d011682016040523d82523d6000602084013e610d1e565b606091505b5050905080610d59576040517fcd1b9c7100000000000000000000000000000000000000000000000000000000815260040160405180910390fd5b600460009054906101000a900473ffffffffffffffffffffffffffffffffffffffff1673ffffffffffffffffffffffffffffffffffffffff167fb112587e57bfa970257f3d54fc52859c6300f6bd7a982462c320fed45c2530ed60405160405180910390a25050505050565b828054828255906000526020600020908101928215610e3e579160200282015b82811115610e3d5782518260006101000a81548173ffffffffffffffffffffffffffffffffffffffff021916908373ffffffffffffffffffffffffffffffffffffffff16021790555091602001919060010190610de5565b5b509050610e4b9190610e4f565b5090565b5b80821115610e68576000816000905550600101610e50565b5090565b6000604051905090565b600080fd5b600080fd5b6000819050919050565b610e9381610e80565b8114610e9e57600080fd5b50565b600081359050610eb081610e8a565b92915050565b600080fd5b6000601f19601f8301169050919050565b7f4e487b7100000000000000000000000000000000000000000000000000000000600052604160045260246000fd5b610f0482610ebb565b810181811067ffffffffffffffff82111715610f2357610f22610ecc565b5b80604052505050565b6000610f36610e6c565b9050610f428282610efb565b919050565b600067ffffffffffffffff821115610f6257610f61610ecc565b5b602082029050602081019050919050565b600080fd5b6000610f8b610f8684610f47565b610f2c565b90508083825260208201905060208402830185811115610fae57610fad610f73565b5b835b81811015610fd75780610fc38882610ea1565b845260208401935050602081019050610fb0565b5050509392505050565b600082601f830112610ff657610ff5610eb6565b5b8135611006848260208601610f78565b91505092915050565b6000806040838503121561102657611025610e76565b5b600061103485828601610ea1565b925050602083013567ffffffffffffffff81111561105557611054610e7b565b5b61106185828601610fe1565b9150509250929050565b61107481610e80565b82525050565b600060208201905061108f600083018461106b565b92915050565b600080fd5b60008083601f8401126110b0576110af610eb6565b5b8235905067ffffffffffffffff8111156110cd576110cc611095565b5b6020830191508360018202830111156110e9576110e8610f73565b5b9250929050565b6000806020838503121561110757611106610e76565b5b600083013567ffffffffffffffff81111561112557611124610e7b565b5b6111318582860161109a565b92509250509250929050565b600081519050919050565b600082825260208201905092915050565b6000819050602082019050919050565b600073ffffffffffffffffffffffffffffffffffffffff82169050919050565b600061119482611169565b9050919050565b6111a481611189565b82525050565b60006111b6838361119b565b60208301905092915050565b6000602082019050919050565b60006111da8261113d565b6111e48185611148565b93506111ef83611159565b8060005b8381101561122057815161120788826111aa565b9750611212836111c2565b9250506001810190506111f3565b5085935050505092915050565b6000602082019050818103600083015261124781846111cf565b905092915050565b600080fd5b600067ffffffffffffffff82111561126f5761126e610ecc565b5b61127882610ebb565b9050602081019050919050565b82818337600083830152505050565b60006112a76112a284611254565b610f2c565b9050828152602081018484840111156112c3576112c261124f565b5b6112ce848285611285565b509392505050565b600082601f8301126112eb576112ea610eb6565b5b81356112fb848260208601611294565b91505092915050565b60006020828403121561131a57611319610e76565b5b600082013567ffffffffffffffff81111561133857611337610e7b565b5b611344848285016112d6565b91505092915050565b60008115159050919050565b6113628161134d565b82525050565b600081519050919050565b600082825260208201905092915050565b60005b838110156113a2578082015181840152602081019050611387565b838111156113b1576000848401525b50505050565b60006113c282611368565b6113cc8185611373565b93506113dc818560208601611384565b6113e581610ebb565b840191505092915050565b60006040820190506114056000830185611359565b818103602083015261141781846113b7565b90509392505050565b60006020820190506114356000830184611359565b92915050565b600061144682611169565b9050919050565b6114568161143b565b82525050565b6000602082019050611471600083018461144d565b92915050565b600067ffffffffffffffff82169050919050565b61149481611477565b82525050565b60006020820190506114af600083018461148b565b92915050565b60006040820190506114ca600083018561144d565b6114d7602083018461144d565b9392505050565b6000819050919050565b6114f1816114de565b82525050565b600061ffff82169050919050565b61150e816114f7565b82525050565b600063ffffffff82169050919050565b61152d81611514565b82525050565b6000819050919050565b6000819050919050565b600061156261155d61155884611533565b61153d565b611514565b9050919050565b61157281611547565b82525050565b600060a08201905061158d60008301886114e8565b61159a602083018761148b565b6115a76040830186611505565b6115b46060830185611524565b6115c16080830184611569565b9695505050505050565b6000815190506115da81610e8a565b92915050565b6000602082840312156115f6576115f5610e76565b5b6000611604848285016115cb565b91505092915050565b7f4e487b7100000000000000000000000000000000000000000000000000000000600052601160045260246000fd5b600061164782610e80565b915061165283610e80565b9250828210156116655761166461160d565b5b828203905092915050565b600061167b82610e80565b915061168683610e80565b9250827fffffffffffffffffffffffffffffffffffffffffffffffffffffffffffffffff038211156116bb576116ba61160d565b5b828201905092915050565b7f4e487b7100000000000000000000000000000000000000000000000000000000600052603260045260246000fd5b7f4e487b7100000000000000000000000000000000000000000000000000000000600052601260045260246000fd5b600061172f82610e80565b915061173a83610e80565b92508261174a576117496116f5565b5b828206905092915050565b600061176082610e80565b91507fffffffffffffffffffffffffffffffffffffffffffffffffffffffffffffffff82036117925761179161160d565b5b600182019050919050565b600081905092915050565b50565b60006117b860008361179d565b91506117c3826117a8565b600082019050919050565b60006117d9826117ab565b915081905091905056fea2646970667358221220a59d7ef5af37954240e6424a86b15c3699d8f604fbabf96e979bbfdf8cdfcd9364736f6c634300080f0033",
  "devdoc": {
    "author": "chain xvi",
    "details": "This contract uses chainlink oracles for Keepers to automate the execution and for VRF to get random number to pick winner",
    "kind": "dev",
    "methods": {
      "enterLottery()": {
        "details": "This function checks if the lottery is playable to make sure the player enters where no previous winner is being picked by the VRF. It also checks if the minimum amount is equal or above the minimum."
      },
      "getInterval()": {
        "returns": {
          "_0": "i_interval as uint256"
        }
      },
      "getLastTimeStamp()": {
        "returns": {
          "_0": "s_lastTimeStamp as uint256"
        }
      },
      "getLotteryAmount()": {
        "returns": {
          "_0": "s_lotteryAmount as uint256"
        }
      },
      "getLotteryPlayable()": {
        "returns": {
          "_0": "s_lotteryPlayable as bool"
        }
      },
      "getMinEntranceFee()": {
        "returns": {
          "_0": "i_minEntranceFee as uint256"
        }
      },
      "getNumberOfParticipants()": {
        "returns": {
          "_0": "s_participants.length as uint256"
        }
      },
      "getParticipants()": {
        "returns": {
          "_0": "s_participants as address[]"
        }
      },
      "getSubscriptionId()": {
        "returns": {
          "_0": "i_subscriptionId as uint256"
        }
      },
      "getTotalPlayedAmount()": {
        "returns": {
          "_0": "s_totalPlayedAmount as uint256"
        }
      },
      "getWinner()": {
        "returns": {
          "_0": "s_winner as address"
        }
      }
    },
    "title": "A lottery contract",
    "version": 1
  },
  "userdoc": {
    "kind": "user",
    "methods": {
      "enterLottery()": {
        "notice": "Allows participants to enter the lottery"
      },
      "getInterval()": {
        "notice": "Returns the interval"
      },
      "getLastTimeStamp()": {
        "notice": "Returns the last time stamp"
      },
      "getLotteryAmount()": {
        "notice": "Returns the lottery amount"
      },
      "getLotteryPlayable()": {
        "notice": "Returns the lottery playable state"
      },
      "getMinEntranceFee()": {
        "notice": "Returns the min entrance fee"
      },
      "getNumberOfParticipants()": {
        "notice": "Returns the number of participants"
      },
      "getParticipants()": {
        "notice": "Returns the participants"
      },
      "getSubscriptionId()": {
        "notice": "Returns the subscriptionId"
      },
      "getTotalPlayedAmount()": {
        "notice": "Returns the total played amount of the lottery"
      },
      "getWinner()": {
        "notice": "Returns the winner"
      }
    },
    "notice": "A lottery where participants enter and after an interval a winner is picked",
    "version": 1
  },
  "storageLayout": {
    "storage": [
      {
        "astId": 231,
        "contract": "contracts/Lottery.sol:Lottery",
        "label": "s_participants",
        "offset": 0,
        "slot": "0",
        "type": "t_array(t_address_payable)dyn_storage"
      },
      {
        "astId": 235,
        "contract": "contracts/Lottery.sol:Lottery",
        "label": "s_participantToAmount",
        "offset": 0,
        "slot": "1",
        "type": "t_mapping(t_address,t_uint256)"
      },
      {
        "astId": 239,
        "contract": "contracts/Lottery.sol:Lottery",
        "label": "s_participantToExists",
        "offset": 0,
        "slot": "2",
        "type": "t_mapping(t_address,t_bool)"
      },
      {
        "astId": 241,
        "contract": "contracts/Lottery.sol:Lottery",
        "label": "s_lotteryAmount",
        "offset": 0,
        "slot": "3",
        "type": "t_uint256"
      },
      {
        "astId": 243,
        "contract": "contracts/Lottery.sol:Lottery",
        "label": "s_winner",
        "offset": 0,
        "slot": "4",
        "type": "t_address"
      },
      {
        "astId": 245,
        "contract": "contracts/Lottery.sol:Lottery",
        "label": "s_lotteryPlayable",
        "offset": 20,
        "slot": "4",
        "type": "t_bool"
      },
      {
        "astId": 249,
        "contract": "contracts/Lottery.sol:Lottery",
        "label": "s_totalPlayedAmount",
        "offset": 0,
        "slot": "5",
        "type": "t_uint256"
      },
      {
        "astId": 252,
        "contract": "contracts/Lottery.sol:Lottery",
        "label": "COORDINATOR",
        "offset": 0,
        "slot": "6",
        "type": "t_contract(VRFCoordinatorV2Interface)204"
      },
      {
        "astId": 256,
        "contract": "contracts/Lottery.sol:Lottery",
        "label": "i_keyHash",
        "offset": 0,
        "slot": "7",
        "type": "t_bytes32"
      },
      {
        "astId": 261,
        "contract": "contracts/Lottery.sol:Lottery",
        "label": "i_gasLimit",
        "offset": 0,
        "slot": "8",
        "type": "t_uint32"
      },
      {
        "astId": 263,
        "contract": "contracts/Lottery.sol:Lottery",
        "label": "s_lastTimeStamp",
        "offset": 0,
        "slot": "9",
        "type": "t_uint256"
      }
    ],
    "types": {
      "t_address": {
        "encoding": "inplace",
        "label": "address",
        "numberOfBytes": "20"
      },
      "t_address_payable": {
        "encoding": "inplace",
        "label": "address payable",
        "numberOfBytes": "20"
      },
      "t_array(t_address_payable)dyn_storage": {
        "base": "t_address_payable",
        "encoding": "dynamic_array",
        "label": "address payable[]",
        "numberOfBytes": "32"
      },
      "t_bool": {
        "encoding": "inplace",
        "label": "bool",
        "numberOfBytes": "1"
      },
      "t_bytes32": {
        "encoding": "inplace",
        "label": "bytes32",
        "numberOfBytes": "32"
      },
      "t_contract(VRFCoordinatorV2Interface)204": {
        "encoding": "inplace",
        "label": "contract VRFCoordinatorV2Interface",
        "numberOfBytes": "20"
      },
      "t_mapping(t_address,t_bool)": {
        "encoding": "mapping",
        "key": "t_address",
        "label": "mapping(address => bool)",
        "numberOfBytes": "32",
        "value": "t_bool"
      },
      "t_mapping(t_address,t_uint256)": {
        "encoding": "mapping",
        "key": "t_address",
        "label": "mapping(address => uint256)",
        "numberOfBytes": "32",
        "value": "t_uint256"
      },
      "t_uint256": {
        "encoding": "inplace",
        "label": "uint256",
        "numberOfBytes": "32"
      },
      "t_uint32": {
        "encoding": "inplace",
        "label": "uint32",
        "numberOfBytes": "4"
      }
    }
  }
}